:020000040800F2
:100000003037002099010008A73E00085738000843
:10001000A53E0008E50E00080D470008000000009E
:1000200000000000000000000000000001010008C6
:100030001D170008000000004501000805430008E6
:10004000B3010008B3010008B3010008B3010008C0
:10005000B3010008B3010008B3010008B3010008B0
:10006000B3010008B3010008B3010008351500080A
:10007000B3010008B3010008B3010008B301000890
:10008000B3010008B3010008B3010008B301000880
:10009000B3010008B3010008B3010008B301000870
:1000A000B3010008AD430008B3010008B301000824
:1000B000B3010008B3010008B3010008B301000850
:1000C000B3010008B3010008B3010008B301000840
:1000D000B3010008B3010008B3010008B301000830
:1000E000D9170008B3010008B3010008DFF80CD0ED
:1000F00000F038FC004800478551000830370020E8
:10010000224B19680868B0E8F00F80F30988BFF344
:100110006F8F4FF0000080F311884EF00D0E704786
:100120000000000006480068006880F3088862B696
:1001300061B6BFF34F8FBFF36F8F00DF00BF00BF0B
:1001400008ED00E0EFF30980BFF36F8F0F4B1A68E3
:1001500020E9F00F106008B54FF0500080F31188CF
:10016000BFF34F8FBFF36F8F07F0A8FC4FF0000075
:1001700080F31188BDE8084019680868B0E8F00FFE
:1001800080F30988BFF36F8F704700BF9C02002087
:10019000EFF3058070470000064880470648004797
:1001A000FEE7FEE7FEE7FEE7FEE7FEE7FEE7FEE727
:1001B000FEE7FEE7A9430008ED000008202A04DB63
:1001C000203A21FA02F00021704721FA02F3D040D0
:1001D000C2F12002914008431946704740EA0103EA
:1001E0009B0703D009E008C9121F08C0042AFAD2ED
:1001F00003E011F8013B00F8013B521EF9D27047B1
:10020000D2B201E000F8012B491EFBD27047002258
:10021000F6E710B513460A4604461946FFF7F0FF05
:10022000204610BD421C10F8011B0029FBD1801A8A
:10023000704710B5002200E0521C835C8C5CA34226
:1002400001D1002BF8D1D8B2E1B2401A10BD30B5BF
:1002500005460020034600E05B1C934205D2EC5C9F
:10026000C85C201A01D1002CF6D130BDF0B480EA70
:100270000102D40F4200B2EB410F02D202460846FF
:1002800011464A0042D0C30DDDB2C1F3C752AD1AC8
:10029000202D35DAC1F3160141F4000204B15242B7
:1002A000C5F1200602FA06F12A411044B3EBD05FF3
:1002B00023D0C4B1012DA0EBC35009DCF0BC4FF03A
:1002C000004202EAC352DBB200F5000000F03CB984
:1002D000400000F1807000EBC350A0F1807040EA54
:1002E000D170490009E0490841EAC071A0EBC35050
:1002F00000F50000400800EBC350F0BC00F01BB953
:100300006142012202EB4101001BF6E7F0BC70479D
:1003100081F00041AAE780F00040A7E780EA0102EF
:1003200010B502F00043400022D04A001FD0010E59
:1003300001EB1261C0F35600C2F3560240F4000014
:1003400042F40002A0FB022000047F39140400D014
:10035000401C50EA124001D44000491EC2B20C06B3
:1003600004EBD010401C4008802A02D003E000209B
:1003700010BD20F00100002900DA0020184310BD54
:1003800030B480EA010202F0004530F0004221F072
:10039000004013D090B1C30DD40DC2F31601C0F3C9
:1003A0001600E41A41F4000140F400027D34914249
:1003B00001D3641C00E04900002C02DA30BC0020AC
:1003C00070474FF400000023914201D3891A034380
:1003D00040084FEA4101F7D151B1914202D14FF0AB
:1003E000004105E002D24FF0010101E06FF0010190
:1003F00003EBC450284430BC00F09DB8420005D047
:10040000C0F3C7525242914201DC0020704700EB1A
:10041000C1507047C10F80EAE0700844CA079623B4
:10042000002100F091B896230022114600F08CB80C
:1004300020F00040C10DC0F3160040F400007F29F9
:1004400001DA00207047962903DCC1F19601C8400B
:10045000704796398840704700F0004230F0004005
:100460000AD0C10D01F56071C0F3160042EA0151D6
:10047000C208400711437047002001467047000042
:10048000002801DBC0F10040002901DBC1F100417F
:1004900081427047002801DBC0F10040002901DBE8
:1004A000C1F100418842704730B50B46014600203B
:1004B0002022012409E021FA02F59D4205D303FA26
:1004C00002F5491B04FA02F52844151EA2F10102A7
:1004D000F1DC30BD2DE9F05F0546002092469B46D9
:1004E00088460646814640241BE02846414647464A
:1004F0002246FFF763FE53465A46C01A914110D375
:1005000011461846224600F03FFA2D1A67EB010803
:100510004F4622460120002100F036FA17EB000971
:100520004E41201EA4F10104DFDC484631462A4634
:100530004346BDE8F09F0029A8BF7047401C490012
:1005400008BF20F00100704710B4B0FA80FC00FA38
:100550000CF050EA010404BF10BC704749B1CCF163
:10056000200421FA04F411FA0CF118BF01212143EF
:100570000843A3EB0C01CB1D4FEA00614FEA1020AA
:1005800042BF002010BC704700EBC350104400294C
:10059000A4BF10BC7047401C490008BF20F00100F8
:1005A00010BC70472DE9FE4F804681EA0300C00F62
:1005B0000C46009021F0004123F00045B8EB02000A
:1005C000A94105D24046214690461C460B460246AC
:1005D00023F00040104347D0270DC7F30A00C3F3B0
:1005E0000A510290401A019040286BDAC3F31300BD
:1005F00040F4801B0098924620B10023D2EB030AFE
:1006000063EB0B0B01985946C0F14002504600F0D5
:10061000BBF906460D4650465946019A00F0C3F90B
:1006200010EB08006141002487EA115284EAE77365
:100630001A4340D0009A62B3019A012A4FEA075246
:1006400015DC001B61EB02014FF0004202EA075289
:10065000CDE90042001C41F5801132462B4600F0E6
:10066000C3F903B0BDE8F08F40462146F9E7001B0F
:1006700061EB0201001C41F5801300185B4120185A
:10068000A2F5001747EB030140EAD570B6196D419A
:1006900011E06D084FEA360645EAC0754FEA075289
:1006A000001B61EB0201001C41F5801149084FEA73
:1006B00030000019514132462B4603B0BDE8F04FDF
:1006C00000F083B90098012240000023D0EB020221
:1006D00063EBE073009821464FEAE074B8EB00004A
:1006E00061EB0401E9E783F000435BE781F000413F
:1006F00058E72DE9FE4F81EA030404F0004421F09D
:10070000004100944FF0000B23F0004350EA010435
:100710005ED052EA03045BD0C3F30A54C1F30A5516
:100720002C44A4F2F3340194A0FB0254C1F313014E
:1007300041F48011C3F3130343F4801301FB02441B
:1007400000FB034E840A970A44EA815447EA835720
:10075000A4FB076802958D0A05FB07854FEA932CD9
:1007600004FB0C542705029D4FEA065847EA16374A
:10077000B5EB08056EEB070C870E920E47EA811762
:1007800042EA8312A7FB0201B6EB0B0164EB000403
:100790002B0D43EA0C335E1844EB1C50DA465146ED
:1007A000E7FB0201C5F313044FEA0B3343EA14538A
:1007B0004FEA0432019C43EA0603A4F10C040294BC
:1007C000009CCDE900B400F00FF903B0BDE8F08F54
:1007D00000200146F9E72DE9F04D81EA030404F019
:1007E000004B21F0004514464FF0000A23F0004171
:1007F00050EA050220D054EA01021DD0C5F30A5781
:100800000246C5F31303C1F31300C1F30A5640F4C3
:10081000801543F48013A7EB0608101BD64608F298
:10082000FD3873EB050002D308F1010801E09218CE
:100830005B41B8F1000F03DA00200146BDE8F08DFE
:1008400000204FF48011064684460EE0171B73EB20
:10085000050705D3121B63EB050306434CEA010CA5
:1008600049084FEA300092185B4150EA0107EDD188
:1008700052EA030012D082EA040083EA0501084329
:1008800005D0101BAB4106D20122002306E0002256
:100890004FF0004302E06FF0010253101AEB060024
:1008A0004CEB085110EB0A0041EB0B01BDE8F04D99
:1008B00000F08BB8C1F30A52C1F3130140F2FF33C9
:1008C00041F480119A4202DA00200146704740F25A
:1008D00033439A42A2F2334202DC5242FFF76EBC2B
:1008E00000F052B810B500F0004420F00040C20DF6
:1008F000C0F3160040F400007F2A07DA7D2A00DAF0
:100900007D22763A00FA02F1002008E0962A09DCFE
:10091000A2F1760100FA01F1C2F19602D040FFF790
:100920000AFE01E0963A9040002C00D0404210BDF3
:1009300030B5041E71F1000404DB4FF00044404266
:1009400064EB0101141E73F1000405DB1C464FF03B
:100950000043524263EB0403994208BF904230BD0A
:1009600000207047064C074D06E0E06840F00103A8
:1009700094E8070098471034AC42F6D3FFF7BAFB6F
:10098000F08E0008108F0008202A04DB203A00FABD
:1009900002F1002070479140C2F1200320FA03F3D6
:1009A000194390407047202A06DBCB17203A41FAC2
:1009B00002F043EAE07306E041FA02F3D040C2F1EC
:1009C0002002914008431946704710B5141E73F178
:1009D000000408DA401C41F1000192185B411A43FF
:1009E00001D120F0010010BD2DE9F04D92469B464B
:1009F00011B1B1FA81F202E0B0FA80F220329046F1
:100A0000FFF7C2FF04460F4640EA0A0041EA0B0125
:100A100053465A46084313D0114653EA010019D0F1
:100A2000C8F140025046FFF7C9FB05460E46504646
:100A300059464246FFF7A8FF084305D0012004E0CD
:100A400020463946BDE8F08D0020054346EAE076B1
:100A50002C4337430A986305E40AA0EB0800002200
:100A6000FD0A44EA47540A3002D500200146E9E76E
:100A7000010510196941DDE9084500196941BDE822
:100A8000F04DA2E770B58C1810F8015B15F0070364
:100A900001D110F8013B2A1106D110F8012B03E017
:100AA00010F8016B01F8016B5B1EF9D12B0705D41F
:100AB0000023521E0DD401F8013BFAE710F8013B68
:100AC000CB1A921C03E013F8015B01F8015B521E84
:100AD000F9D5A142D8D3002070BD000070B50446FE
:100AE00000688168C943C90717D1816821F00101F5
:100AF000816001F05DFD05460AE000BF01F058FD90
:100B0000401B022804D920688068C043C00706D073
:100B100020688068C043C007F0D0002070BDA06A84
:100B200040F01000A062E06A40F00100E0620120A5
:100B300070BD10B50146406A826A12F0500F05D0B0
:100B4000006A026BBDE8104008461047816A41F414
:100B50000071816201688968C1F3424107290CD1A3
:100B6000017B51B9816A21F480718162816AC90473
:100B700003D4816A41F00101816201F0B9F810BD2E
:100B800010B5406A816A41F040018162C16A41F05A
:100B90000401C16201F0AEF810BD10B5406A01F069
:100BA000A8F810BDF8B500260446009600688168D4
:100BB000C943C9072DD0816841F001018160164801
:100BC00016490068B0FBF1F000E0401E00900028DC
:100BD000FBD101F0EDFC054616E000BF01F0E8FC9A
:100BE000401B022810D920688068C043C0070BD082
:100BF000A06A40F01000A062E06A40F00100E062EC
:100C000084F824600120F8BD20688068C043C007D4
:100C1000E4D10020F8BD00009802002040420F00FF
:100C20002DE9F04F8FB000208D4E0B9004F099FB12
:100C30004FF00009C9EBC90000EB4001894800EB07
:100C4000C1000C9003F030F909EB49000D9009EB5D
:100C5000C90000EB40018448002500EB81002C46D0
:100C60000E9006E0002404E01CB16002401E87B232
:100C70000AE00D98002700EB050B0E9805EBC50167
:100C80000A97079700EB810A38460C9903F0ACF8F5
:100C9000754800EB8400C0F810754FF4FA7001F04D
:100CA000A9FA584600F0A4FE0AEB8408C8F84401EB
:100CB000F16E30468847D8F844012B46CDE9004014
:100CC0004A466AA10297304606F032F9316F304643
:100CD00088470BA9304602F0BFFD07466C4850F824
:100CE0002710304606F088FC032FF2D0042FF0D0F6
:100CF000022F7DD00B9F00204AF824700B90002C0F
:100D00004AD0D8E950010290081AFFF78CFB0190F5
:100D100058F8040C009001463846FFF7F9FA01999B
:100D2000FFF72EFB0746C8F8840239460798FFF7FD
:100D30009DFA07900298FFF776FB3946FFF7EEFA27
:100D40000099FFF7E8FA0146C8F8C8030A98FFF7C8
:100D50008DFA0A90F16E30468847D8F8C803FFF73D
:100D60007BFB07460091D8F88402FFF775FB02462B
:100D700000982B46CDE90870601ECDF81090CDE9A3
:100D80000550CDE9022100904A4642A1304606F0C6
:100D9000CFF8316F30468847641CA4B2092CFFF4A9
:100DA00063AF6FF0020739460798FFF727FB01464C
:100DB0002D480D9A00EB820000EB8504C4F8341531
:100DC000394604F234540A98FFF718FB6062F16E5A
:100DD00030468847606AFFF73FFB07468846206831
:100DE000FFF73AFB02460B468DE80C022B4600E06B
:100DF00033E003AC4A4684E8A00130A1304606F057
:100E000097F8316F304688476D1CADB2032DFFF463
:100E100029AF00200C9902F0E7FF0C9800F070FB5E
:100E200009F101001FFA80F9B9F1030FFFF402AFD5
:100E30002A484FF6FF726C21044600F051FE0A4921
:100E40007022A1F87C052146254800F095FD04F0AC
:100E50007FFA01200FB0BDE8F08F0020FAE7000014
:100E6000041400200C0000206C0400200D0A4144F2
:100E7000435F43485B25645D535B25645D505B25A0
:100E8000645D3A25642C4461633A25640D0A0000D0
:100E90000402002050785B25645D5B25645D5B2562
:100EA000645D3A25662C2051785B25645D5B256482
:100EB0005D5B25645D3A25660D0A00005350785B42
:100EC00025645D5B25645D3A25662C5351785B256E
:100ED000645D5B25645D3A25660D0A007C0900208F
:100EE00000000108FEE770B50446C56E90F860008A
:100EF000032827D0B5F1804F01DA042010E02846FE
:100F0000D4F88010FFF7BCFA01D8002008E028468A
:100F1000D4F89010FFF7B4FA01D8012000E00220C5
:100F200084F8600010B1012807D101E0E16F01E011
:100F3000D4F88410204600F029FE2046BDE8704019
:100F400003F0B8B970BD0000094D4FF4FA760024E3
:100F5000C4EBC40000EB400005EBC00000F080F8DB
:100F6000641CA4B2032CF3D3304604F095F9EEE7E9
:100F70000C0000207CB50446D0F88C100025006FD2
:100F8000FFF77EFA02D9606FB42819D361782A4836
:100F9000425C521CD2B24254322A11D36178455479
:100FA00094F8580010B3012802D0606FB42807D31A
:100FB00084F8A650032084F86000204600F0A0FAD0
:100FC0001E49206F88422ADA61781D4850F8212096
:100FD000521C40F82120052A21D9617840F821507F
:100FE00094F8580038B101280AD00CE094F8600059
:100FF0000228DDD0D9E7E06EB0F1804F07DB02E0D8
:1010000094F8A50018B994F86000032807D084F874
:10101000A55084F8A4500220656784F85800E06E5B
:10102000FFF71AFACDE9000194F85830627805A16B
:101030000A4805F07DFF7CBD04000020EC51B83D5E
:101040005C03002043483A25642C44657669636557
:101050003A25642C563A25662E0D0A000414002009
:1010600070B5044690F8A400022528B194F8580001
:1010700028B3012829D126E0204600F0D7F988B10D
:10108000204600F0CBFC10280BD0204602F00CFFCD
:10109000012084F8A40094F86010032901D084F89A
:1010A000A60070BD042084F86000002084F8A6002B
:1010B00084F858502046BDE8704000F021BA204620
:1010C000FFF711FF01E084F860502046BDE8704052
:1010D000FFF750BF10B5044690F8A4004FF001018F
:1010E0000028204611D000F033FD014604F1200015
:1010F00004F012F8E066204600F00EFD014604F10F
:101100003C0004F009F8206710BD00F021FDE06606
:10111000204600F001FDF6E72DE9FF5F8946804695
:10112000DFF890A104F01DF94B46424662A15046FB
:1011300005F0FEFEB8F1030F01D364A103E0B9F19D
:10114000030F05D36CA1504605F0F2FEBDE8FF9FEA
:10115000B8F1000F08D0734CB8F1010F02D004F5BC
:10116000A87402E0A83400E06E4CB9F1000F06D07C
:10117000B9F1010F01D0022702E0012700E00027AA
:101180003A4669A1504605F0D3FE6649C8EBC8004F
:1011900000EB400001EBC0064FF0000B022F2ED0F9
:1011A00064A1504605F0C4FE03A9504602F054FB6A
:1011B00005466B4850F82510504606F01DFA032DE1
:1011C000ECD0042DEAD0022DC0D0304602F06CFEE7
:1011D000022F16D003986066204603F06BF84FF498
:1011E000FA7001F007F83946204600F0B1FCFFF72D
:1011F00033F9CDE900014B4642465AA142E05EA1D7
:10120000CFE768480399814206DD67A1504605F0A3
:101210008FFECDF80CB0F2E70121204600F098FCDB
:1012200060666B4F204600F077FC0546206764201F
:1012300000F0E0FF2046039900F0A8FC204603F0F0
:1012400039F8606EFFF708F902460B4661A1504677
:1012500005F06EFE39460398FFF75AF82946FFF766
:101260000FF9DFD839460398FFF700F82946FFF752
:1012700011F9D7D82846FFF7EFF8CDE900014B4622
:1012800042465AA1504605F053FE5DA1504605F076
:101290004FFE8DF808B0DAF86420012102A89047CB
:1012A0009DF808000D28F6D1304600F029F904F029
:1012B0004FF84BE70414002063683A2025642C2083
:1012C0005369643A2025642E0D0A00004572726F3E
:1012D000723A20546172676574206368616E6E654E
:1012E0006C20646F6573206E6F7420657869737409
:1012F00020210D0A000000004572726F723A2053DF
:10130000616D706C696E67206368616E6E656C20DC
:10131000646F6573206E6F74206578697374202123
:101320000D0A00000C000020547970653A25640D08
:101330000A000000506C6561736520656E7465720B
:10134000207468652074617267657420766F6C74B0
:101350006167652076616C7565202E0D0A000000BE
:10136000040200205643485B25645D5B25645D3ABA
:1013700025660D0A00000000506C656173652065EC
:101380006E7465722074686520746172676574207C
:1013900063757272656E742076616C7565202E0DB2
:1013A0000A000000000040404572726F723A204F00
:1013B00076657263757272656E742C20706C6561EF
:1013C00073652072652D656E74657220210D0A00AB
:1013D0000AD7233C4368617267696E675F566F6C1A
:1013E000746167653A25660D0A0000004943485B51
:1013F00025645D5B25645D3A25660D0A00000000EA
:10140000506C6561736520696E70757420746865D1
:1014100020636F6E6669726D6174696F6E207369A7
:10142000676E616C202E0D0A000000002DE9F0416E
:10143000044640F6C410C4F89400E06E6FF080419A
:101440000144264A264F607800269142254D395C9A
:101450004FF0010812D2C1B955F82010491C45F8C7
:101460002010052926D360784FF07A5145F8206086
:1014700084F85860E06EFEF7F9FE28E029B907F815
:1014800000800121204602F0FDFE607855F8201012
:10149000491C45F8201005290CD3607845F82060D8
:1014A00060783E5494F8A500012806D0002120461B
:1014B00002F0E8FE0020BDE8F08184F8A5606278C3
:1014C00009A10D4805F034FD0C4884F85880606689
:1014D000204602F0EFFE0120EDE70000FFFF8F0144
:1014E000010000205003002063683A25642C696ED7
:1014F00073657274210D0A00041400200000A040DE
:1015000010B50446407870B101280ED04FF48071B8
:101510000122074801F046F8002060662046BDE839
:10152000104002F0C7BE4021F2E78021F0E7000042
:10153000000C0140014800F04DBD0000D811002012
:1015400030B590F840500124AC40C56B6C60046825
:1015500063604368102B036803D099600068C26021
:1015600030BD9A600068C16030BD00002DE9F04FC9
:1015700089B003F0F6FE5148D0F8141500297DD04B
:101580000025834600200790044606904C4805EB52
:10159000C50100EB810705EBC50000EB40010BEB3B
:1015A000810A0AEB84005E46D0E909804146FEF7D5
:1015B000AFFE814606EB8400D0F81065D0F8141514
:1015C000881BFEF730FF4946FEF7DAFE814647F8F2
:1015D000240049460698FEF749FE069041464846D3
:1015E000FEF79CFE80463046FEF71DFF4146FEF7A3
:1015F0008FFE07EB84010646C86631460798FEF762
:1016000035FE07903046FEF727FF064688464846D7
:10161000FEF722FF0A468DE825000DF10C0923464E
:1016200089E850012A4627A12E4805F081FC641C58
:10163000A4B2082CB5D36FF0020739460698FEF71E
:10164000DDFE1F49064601EB8504394644F8D80FF4
:101650000798FEF7D3FEE060FEF7FEFE07460C4655
:101660003046FEF7F9FECDE90001CDE9047402959C
:101670002A461DA11B4805F05BFC00E017E06D1C2D
:10168000ADB2032DFFF47EAF4FF6FF72F0210C4890
:1016900000F026FA0A49F422A1F8F000184800F0F8
:1016A0006BF903F055FE012009B0BDE8F08F15A1DC
:1016B0000C4805F03DFC0020F6E700006C0400201B
:1016C000EC09002050785B25645D5B25645D3A255C
:1016D000662C2051785B25645D5B25645D3A256648
:1016E0000D0A000004140020534B785B25645D3A1A
:1016F00025662C5347785B25645D3A25660D0A0004
:1017000000040108414443206E6F742063616C69DA
:1017100062726174656420210D0A00007047000048
:10172000014805F06BFEFBE70414002070B5C0B063
:101730000C4606464FF480716846FEF768FD224667
:1017400031466846FEF74AFDE01E81B24FF6FF754E
:101750002A46F01C00F0C4F90DF80400641CA1B284
:10176000000A0DF80100491C8AB22B46694602485E
:1017700002F018F840B070BD58130020F0B4154BBB
:101780000646002503F182005A272F540124A5277D
:1017900027540227541D3C54032482272754042431
:1017A000370A2754052426540624A3F802410AE0E8
:1017B000B3F802614C5D3454B3F80241641C6D1CF3
:1017C000A3F80241EDB29542F2D3A1B2F0BCFFF70B
:1017D000ADBF00006803002010B54FF4005000F0CA
:1017E000E5FD4FF4804000F0E1FDBDE810404FF40E
:1017F000004000F0DBBDF0B5540800230A44521E3F
:10180000D5B209E0CE18EF1A825D10F807C000F8D3
:1018100006C05B1CC255DBB2A342F3D3F0BD72B667
:10182000FEE7000010B500F095FD03493420C860C4
:10183000BDE8104000F044BD0020024006490020F1
:10184000C8610648016941F004010161016941F084
:101850004001016170470000F814002000200240A0
:10186000064A0021D16106490A6942F002020A6172
:101870004861086940F0400008617047F814002092
:1018800000200240044B0022DA61044A136943F04D
:101890000103136101807047F8140020002002400A
:1018A00010B5A0F10063B3F5003F03D812B109B140
:1018B000002305E0002010BD30F8014BCC545B1C28
:1018C0009342F9D3012010BD14480022C168CB0611
:1018D000134904D5CA6942F00202CA611022C368E2
:1018E0005B0705D5CB6943F00103CB6142F00402ED
:1018F000C369DB0707D0CB6943F00403CB61C1693F
:1019000021F00101C161A2F58071013901D0C260ED
:101910007047C16921F00101C16170470020024098
:10192000F814002070B5054600F042FE0646114C42
:1019300009E0681C07D025B100F03AFE801BA842E0
:1019400001D9032070BDE068C007F2D1E0688006CD
:1019500001D52020E060E068C00605D4E069C0073A
:1019600002D1E068400703D5FFF7AEFF012070BD4C
:10197000002070BD002002402DE9F04186B00546F0
:101980000024A0F10060174688460094B0F5003F9F
:1019900011D887B1B8F1000F0DD000F0DBFC0120A9
:1019A0000194CDE9035011493420C860694601A86B
:1019B00000F032FC14E0002006B0BDE8F08100BF6A
:1019C00038F8142005EB440116460023012000F0EE
:1019D00081FC35F81400B04201D00120ECE7641C12
:1019E000BC42EDD300F06CFC0098E5E7002002401B
:1019F0000021084A092801D90020704702EB800025
:101A0000054A02E050F8243B19449042FAD3C80832
:101A10007047000088100020A81100202DE9F04731
:101A20000446D0F894004FF4FA71884203D341F28F
:101A30008831884201D9C4F89410D4F89400FEF794
:101A4000F2FC2049FEF79CFC04271F4ED4F86C8062
:101A500081460025404656F83510FEF71BFD08D894
:101A600006EBC50041684046FEF70AFD01D828464E
:101A700003E06D1CBD42EDD31020401C44F85C0F08
:101A80000646FEF7D0FC05461049FEF747FC6062AB
:101A90000F494846FEF742FC0746206228460D499A
:101AA000FEF73CFCE0620C494846FEF737FCA062BA
:101AB00028460A49FEF732FCC4E90C703046BDE8FE
:101AC000F087000000007A441C880008F5283C409C
:101AD000CDCCCC3D45B68340CDCCCC3E6666864071
:101AE00070B50446002310464AF2010510E000BF1D
:101AF00014F8012B50400022C60702D085EA50009E
:101B000000E04008521C92B2082AF5D35B1C9BB23D
:101B10008B42EDD370BD000010B54478406DFFF7E7
:101B200067FF002810D0FEF77EFC084904EB440252
:101B300001EB8204D4F83C15FEF7F0FBD4F86015F5
:101B4000BDE81040FEF792BB10BD00006C04002001
:101B500070B540780C4600EB40052819FFF748FFA8
:101B6000002810D0FEF75FFC074901EB850101EB6F
:101B70008404D4F83415FEF7D1FBD4F85815BDE829
:101B80007040FEF773BB70BD6C0400202DE9F0417E
:101B900088460446016F4046FEF7BAFB064620F031
:101BA0000047002511494046FEF7EAFB4FEA28624C
:101BB00001464FF0010848EAE210401C13D017F02C
:101BC000FF4F0BD03846FEF765FC07D248EAE670B7
:101BD000FEF720FC0649FEF7A1FB0546606E29468C
:101BE000FEF744FB6066BDE8F08100000000A04104
:101BF0000AD7233CF8B50024009490F82420254609
:101C0000012A12D0012280F824204A681F23072AC3
:101C10000DD20668776B521E02EB820293409F43FF
:101C20000B6893401F43776319E00220F8BD0668F4
:101C30000D2A0AD2376BD21F02EB820293409F43D8
:101C40000B6893401F43376309E0F76A0D3A02EBD4
:101C5000820293409F430B6893401F43F7620A68D8
:101C6000072306680A2A0AD3F7680A3A02EB4202F7
:101C700093409F438B6893401F43F76008E03769A8
:101C800002EB420293409F438B6893401F433761AE
:101C90000A68102A01D0112A20D1124B02689A42F8
:101CA00017D193681B0219D4936843F4000393601F
:101CB0000968102912D10C490C4A0968B1FBF2F1EC
:101CC00001EB8101490000E0491E00910029FBD190
:101CD00004E0816A41F020018162012480F82450EF
:101CE0002046F8BD002401409802002040420F0029
:101CF00070477047704700002DE9F0414FF0000732
:101D000004003D467ED0A06A002628B9E66284F829
:101D10002460204600F07EF82046FEF7DFFEA16A30
:101D2000C90600D420B1A06A40F01000A06269E0AA
:101D3000A16A21F4885141F00201A1626268E1695F
:101D4000237B0A4347EA43010A43A1684FF48077A3
:101D5000B94209D0012907D05FF0000194F814C0FE
:101D6000BCF1010F02D00AE03946F7E7F3B1A36AEC
:101D700043F02003A362E36A43F00103E3622368B4
:101D8000D3F804C02CF4694C4CEA010CC3F804C02D
:101D900021688B68DFF870C003EA0C0313438B6083
:101DA000A168B9420BD0012909D00CE0DFF85CC072
:101DB000A3690CEB43330B4343F40061DFE7218A53
:101DC0000D05A5F580152168CB6A23F470032B431C
:101DD000CB62216889680E4B1940914208D1E662B6
:101DE000A16A21F0020141F00101A162BDE8F08188
:101DF000A06A20F0020040F01000A062E06A40F00B
:101E00000100E0620120F1E7FDF7E1FF00E0FFFFE4
:101E1000FE0E1FFF70B586B000260546009601969F
:101E2000029603960068224988423FD12149886979
:101E300040F400708861886900F40070049088693B
:101E400040F004008861886900F00400049088690B
:101E500040F0080088618869032400F008000490BD
:101E6000FF20CDE900046946134800F0ABFA0120D9
:101E7000CDE900046946114800F0A4FA114C10485D
:101E8000C4E900068020C4E902608000206180006F
:101E900060612020A0614FF44050E061204600F0D6
:101EA00043F908B1FFF7BBFC2C62656206B070BD58
:101EB000002401400010024000080140000C0140D5
:101EC00008000240D81100202DE9F0478946044659
:101ED0003B4900683B4F0E1D9046884201D0B842F6
:101EE00007D1306810F4702F03D001252846BDE8D3
:101EF000F08794F8240001280CD0012084F82400F5
:101F00002046FEF74FFE05004FF0000004D084F895
:101F10002400EBE70220EAE7A16A40F60162914360
:101F200041F48071A1622168B94218D1326812F47B
:101F3000702F14D0A16A41F48011A1623168490563
:101F400005D5A16A21F4005141F48051A162A16A32
:101F5000C9040AD5E16A21F00601E16206E0A26A3D
:101F600022F48012A2624968E9E7E06284F8240062
:101F7000216A15488862216A1448C862216A144897
:101F8000086321686FF0020008602068816841F4EE
:101F900080718160216843464A464C31206A00F0D6
:101FA000F1F820688168C1F342410729816803D0B4
:101FB00041F48011816099E741F4A001FAE7000043
:101FC0000024014000280140330B00089B0B00084F
:101FD000810B00082DE9F05FC16B0C6801680B688C
:101FE000D0F840C0042202FA0CF2494DDFF824A1D7
:101FF000494E4A4FDFF828B1DFF828E122422CD0C1
:102000005A072AD50A68920603D40A6822F0040205
:102010000A600168A94201D1042219E0514501D1A9
:10202000402215E0B14202D14FF4806210E0B94283
:1020300002D14FF480420BE0594502D14FF4802287
:1020400006E0714502D14FF4800201E04FF080625A
:102050002F4908394A60C16A3BE04FF0020808FA8C
:102060000CF818EA040F4FF000094FF0010235D0C8
:102070005FEA837832D50B689B0605D40B6823F0A2
:102080000A030B6080F821200168A94201D10222D5
:1020900019E0514501D1202215E0B14202D14FF49F
:1020A000007210E0B94202D14FF400520BE05945E2
:1020B00002D14FF4003206E0714502D14FF4001214
:1020C00001E04FF00072124908394A6080F8209010
:1020D000816A00291AD0BDE8F05F0847082505FA93
:1020E0000CF5254212D01B0710D50B6823F00E0308
:1020F0000B6090F84010C36B02FA01F159608263E3
:1021000080F8212080F82090016BE2E7BDE8F09F85
:10211000080002401C00024030000240440002401F
:10212000580002406C00024030B528B308C813497B
:1021300014221944B1FBF2F18900C1631049816393
:10214000022141771A6843F6F0718A43D0E90014FE
:102150002143D0E902452C432143046921434469CA
:102160002143846921431143196000214163012205
:1021700042770177084630BD012030BDF8FFFDBF32
:102180000000024070B5044690F8200000250128A8
:102190000CD0012084F8200094F821600020012E4A
:1021A00006D084F820000225284670BD022070BDAC
:1021B000022684F82160A0632068066826F00106E4
:1021C00006602046FFF7BCF9E06A00282068016835
:1021D00002D041F00E0106E021F004010160206808
:1021E000016841F00A0101602068016841F00101C5
:1021F0000160D9E770B5044600F0DAF90546601CC5
:1022000002D004480078044400F0D2F9401BA042F8
:10221000FAD370BD8C0200202DE9F0470546264810
:102220000F460126017E01290FD00121814601764A
:102230002868DFF888804CF25034022808D0A24683
:102240002046FFF76FFBA8B131E00220BDE8F08720
:102250002046FFF767FB08BB0120FFF7EFFA204697
:10226000FFF760FBD8F81010064621F00401C8F80B
:1022700010101CE04FF0FF303860AC6811E02046D1
:10228000FFF7EEFA5046FFF74DFBD8F810100600A6
:1022900021F00201C8F8101001D03C6007E004F5FD
:1022A0008064D5E9020100EB8120A042E7D800213B
:1022B00089F818103046C9E7F814002000200240C1
:1022C0000348016941F0800101610020704700006E
:1022D000002002402DE9F05F07461C488846002494
:1022E000017E15461E46012909D00121814601764D
:1022F0004CF2503A5046FFF715FB18B122E002208D
:10230000BDE8F09F012F02D0022F00D00427D34652
:10231000DFF83CA0220128463146FDF74FFF81B28D
:1023200008EB4400FFF7AEFA5846FFF7FBFADAF87D
:10233000102022F00102CAF8102018B9641CE4B27F
:10234000BC42E7D3002289F81820D9E7F81400200E
:1023500000200240064900200A69120607D5054AF6
:102360004A60054A4A600969090600D5012070479C
:102370000020024023016745AB89EFCDB0F5005F37
:102380000ED0B0F5804F0DD00220C0EBC000064A41
:1023900000EB400002EBC000012180F8A51070475F
:1023A0000020F2E70120F0E70C000020044910B5FE
:1023B0000A68024202D00860FFF7E0FF10BD00008B
:1023C000140401402DE9F84FDFF8B891002409F119
:1023D000040A0AF1040B23460F270BF1040EC9E08F
:1023E0000125A5402A40AA427DD1674ED1F804C0FC
:1023F000ACEB0608B44532D014DCBCF1030F3AD084
:1024000009DCBCF1000F2AD0BCF1010F1CD0BCF1DB
:10241000020F31D11DE0BCF1110F17D0BCF1120F2A
:102420002AD119E0B8F5881F19D006DCB8F5803F2D
:1024300015D0B8F5801F1FD111E0B8F5001F0ED0E0
:10244000B8F5041F18D10AE0CB6815E0CB681B1D56
:1024500012E0CB6808330FE0CB680C330CE08B68DC
:102460002BB1012B4FF0080303D0456104E0042396
:1024700002E0056100E00023FF2A01D8064601E0E2
:1024800000F104064FEA840501D9A5F12005D6F82C
:10249000008007FA05FC28EA0C0803FA05F548EA6B
:1024A0000508C6F800804D68ED0062D5374DAE696D
:1024B00046F00106AE61AD6924F0030605F00105A2
:1024C0000095334D06EB050CDCF80850A607360FD7
:1024D00007FA06F825EA0805DFF8B880404503D179
:1024E0004FF0000817E044E0DFF8AC80404502D12F
:1024F0004FF001080FE0DFF8A480404502D14FF013
:10250000020808E0DFF89880404502D14FF0030848
:1025100001E04FF0040808FA06F848EA0508CCF88C
:1025200008804D68D9F80060ED034D4601D516438B
:1025300000E096432E604D68DAF80060AD03554622
:1025400001D5164300E096432E604D68DBF800602D
:10255000ED025D4601D5164300E096432E604D68BE
:10256000DEF80060AD02754601D5164300E09643E3
:102570002E60641C0D682A46E5407FF431AFBDE84B
:10258000F88F00000004014000001110001002400C
:102590000000014000080140000C01400010014013
:1025A000001401400AB1016170470904FBE7000013
:1025B00001488068704700008C0200200248816852
:1025C00002781144816070478C020020074810B5E2
:1025D000016841F010010160032000F095F800202F
:1025E00000F006F800F03EF8002010BD0020024088
:1025F00000B5014687B00022192000F065F81920C7
:1026000000F054F81348816941F4006181618069E8
:1026100005A900F400600690684600F093F900F008
:10262000C1F90D490D4AB0FBF1F10D48491E026098
:10263000416040F2E7320021C0E90321816000F0EF
:1026400021FD10B1012007B000BD054800F05CFD80
:10265000F9E700000010024040420F00002C01404A
:102660009C1300200F4808B5816941F00101816188
:10267000816901F001010091C16941F08051C1619E
:10268000C069002200F0805000900F21901E00F0E1
:102690001BF80548416821F0E06141F0007141609C
:1026A00008BD00000010024000000140002809DBC6
:1026B00000F01F02012191404009800000F1E0205C
:1026C000C0F8001170470000F0B40E4B1B680C46B8
:1026D000C3F30223C3F10705042D00D90425191DF6
:1026E000072901D2002300E0DB1E012606FA05F1CE
:1026F000491E214099409E40761E16403143F0BC51
:1027000002F065B80CED00E0064900F00702086829
:102710004FF6FF03184040EA0220034A10430860C6
:10272000704700000CED00E00000FA052DE9F843C9
:1027300005460078354CC00754D0E0690026C0003B
:1027400008D4E06940F08050E061E069012600F0C3
:10275000805000902E480168C90512D40168804657
:1027600041F480710160FFF723FF074605E000BFD9
:10277000FFF71EFFC01B642823D8D8F80000C0054F
:10278000F6D5206A10F4407021D0A98801F4407178
:1027900081421CD0206A1F49012220F440700A6047
:1027A00000220A602062C00711D0FFF701FF074630
:1027B00041F2883808E000BFFFF7FAFEC11B41452F
:1027C00002D90320BDE8F883206A8007F4D5206A87
:1027D000696820F44070084320621EB1E06920F06F
:1027E0008050E0612878800705D56068A96820F4EA
:1027F0004040084360602878C00605D56068E968F5
:1028000020F48000084360600020DBE700100240F5
:1028100000700040400442422DE9F0470F46050099
:1028200061D0434E306800F00700B84209D23068EA
:1028300020F0070038433060306800F00700B842ED
:1028400051D128683B4C810712D5400703D56068F9
:1028500040F4E06060602878000703D5606840F4C9
:10286000605060606068A96820F0F0000843606014
:102870002878C00728D06868012810D0216802286D
:1028800010D0890700292EDA616821F00301014385
:102890006160FFF78DFE804641F288390DE02168C6
:1028A0008903EFE78901EDE7FFF782FEA0EB08015E
:1028B000494502D90320BDE8F0876068696800F0E7
:1028C0000C00B0EB810FEFD1306800F00700B84288
:1028D0000BD9306820F0070038433060306800F0D2
:1028E0000700B84201D00120E5E72878400705D568
:1028F0006068E96820F4E0600843606028780007B9
:1029000006D56068296920F4605040EAC100606023
:1029100000F058F86168084AC1F30311515CC840DF
:102920000649086006480068FFF762FE0020C2E71B
:102930000020024000100240208A00089802002077
:10294000900200200F2202600C4A536803F0030338
:102950004360536803F0F0038360536803F4E0635B
:10296000C36052684FF4E06303EAD2020261044894
:10297000006800F007000860704700000010024087
:10298000002002400448054900684968044AC1F330
:102990000221515CC840704798020020001002409C
:1029A000308A00080448054900684968044AC1F3B0
:1029B000C221515CC84070479802002000100240BC
:1029C000308A000812A185B00FC98DE80F0014A04D
:1029D000144A006804905168134801F00C03042B5A
:1029E00010D0082B0ED1C1F38343C9031DF8030097
:1029F0000AD5516804AAC1F34041515C0A4A5043C8
:102A0000B0FBF1F005B0704708494843FAE7000011
:102A100002030405060708090A0B0C0D0E0F10101F
:102A2000010200000010024000127A0000093D007F
:102A30002DE9F84F040070D02078C04DC00749D070
:102A40006868C0F38100012807D06868C0F381007E
:102A5000022809D16868C00306D52868800339D5E3
:102A600060680028E7D035E06068B0F5803F0BD0A3
:102A700010B1B0F5A02F11D0286820F48030286064
:102A8000286820F4802002E0286840F48030286024
:102A9000606890B1FFF78CFD06460AE0286840F4B4
:102AA00080202860F0E700BFFFF782FD801B6428CC
:102AB00073D828688003F7D50CE0FFF779FD064648
:102AC00005E000BFFFF774FD801B6428F0D828687C
:102AD0008003F7D420789A4E80074FF001094FF019
:102AE000000839D5686810F00C0F07D06868C0F38B
:102AF0008100022809D16868C00306D428688007CD
:102B000014D52069012808D110E02069B0B1C6F8B9
:102B10000090FFF74DFD074605E00AE1FFF748FD8D
:102B2000C01B0228C4D828688007F7D528686169C7
:102B300020F0F80040EAC10028600DE0C6F80080EF
:102B4000FFF736FD074604E0FFF732FDC01B022801
:102B500023D828688007F7D4207800072CD5794837
:102B6000A169D9B1C0F80090FFF722FD074604E043
:102B7000FFF71EFDC01B02280FD8686A8007F7D533
:102B800071484FF4FA510068B0FBF1F0009000BFBB
:102B90000098411E0091FAD20EE080E0C0F800805B
:102BA000FFF706FD074604E0FFF702FDC01B022801
:102BB00075D8686A8007F7D42078400760D5E8693F
:102BC0000027C00008D4E86940F08050E861E86957
:102BD000012700F0805000905C480168C90513D4BB
:102BE0000168834641F480710160FFF7E1FC824691
:102BF00006E000BFFFF7DCFCA0EB0A0064284ED81B
:102C0000DBF80000C005F5D5E06801280AD008B15E
:102C1000052813D0286A20F001002862286A20F0D5
:102C2000040002E0286A40F001002862E06841F2F6
:102C3000883B98B1FFF7BCFC82460BE0286A40F065
:102C400004002862EEE700BFFFF7B2FCA0EB0A0128
:102C500059455AD8286A8007F6D50CE0FFF7A8FC3A
:102C6000824605E0FFF7A4FCA0EB0A0159454CD8C9
:102C7000286A8007F6D41FB1E86920F08050E86127
:102C8000E06988B36968C1F38101022944D0022850
:102C9000C6F8608004D0FFF78BFC044638E034E0CF
:102CA000FFF786FC074604E0FFF782FCC01B022802
:102CB0002BD828688001F7D4206AB0F5803F05D171
:102CC0006868A16820F4003008436860D4E908010E
:102CD0000843696821F4741108436860C6F860907D
:102CE000FFF766FC044606E025E000BFFFF760FC46
:102CF000001B022809D828688001F7D51BE000BF17
:102D0000FFF756FC001B022802D90320BDE8F88F0C
:102D100028688001F4D40EE00128F7D06868226AA0
:102D200000F48031914204D1616A00F4701088424D
:102D300001D00120EAE70020E8E70000001002408F
:102D4000000042428004424298020020007000408D
:102D500070B5040009D0606A002540B12561656145
:102D6000A56294F8510040B10CE0012070BD60688C
:102D7000B0F5827FF4D0E561F2E784F85050204648
:102D800000F040F8022084F851002068016821F02A
:102D900040010160A088218900F4827001F404419F
:102DA0000843A18901F400610843217C01F002017C
:102DB0000843217D01F001010843218B01F40071DA
:102DC0000843217F01F03801084394F8201001F0F6
:102DD00080010843218D01F40051084321680860F7
:102DE000A069042101EA1040216848602068C16997
:102DF00021F40061C1616565012084F85100002063
:102E000070BD000030B585B00021009101910291A4
:102E10000391224D04682249022203232148AC4237
:102E20001FD18C6944F480548C618C6904F4805403
:102E300004948C6944F008048C618969039301F05F
:102E4000080104912821CDE900126946FFF7BAFA7A
:102E50001548416841F0E06141F00101416005B071
:102E600030BD124DAC42FAD1CC6944F48044CC61FF
:102E7000CC6904F4804404948C6944F008048C61A7
:102E80008969039301F0080104914FF42041CDE9D1
:102E900000126946FFF796FAE1E7000000300140B2
:102EA00000100240000C01400000014000380040CA
:102EB0002DE9F84F044690F8500000271D461646AD
:102EC000894601280DD04FF0010B84F850B0FFF770
:102ED0006FFB804694F85100BA46012804D00227BF
:102EE00093E00220BDE8F88FB9F1000F73D0002EF7
:102EF00071D0032084F85100C4F854A0C4F8309075
:102F0000A686E686C4F838A0A4F83CA0A4F83EA0A3
:102F1000C4F844A0C4F840A0A068B0F5004F09D19F
:102F20002068016821F0400101602068016841F4D7
:102F30008041016020680168490603D4016841F0BE
:102F400040010160E068B0F5006F606803D030B305
:102F5000012E24D041E008B1012E1CD1206B216844
:102F60000088C86006E020688168890709D5216B60
:102F70000988C160206B801C2063E08E401EE086C3
:102F800009E0FFF715FBA0EB0800A84202D3681C7C
:102F900001D031E07DB3E08E0028E4D120E0206B49
:102FA00021680078087306E020688168890709D5E0
:102FB000216B09780173206B401C2063E08E401E5A
:102FC000E0860AE0FFF7F4FAA0EB0800A84203D37A
:102FD000681C02D010E017E06DB1E08E0028E3D14C
:102FE00042462946204601F057F808B12020606586
:102FF000A06818B106E0FFE7032706E02068C16873
:1030000080680090606D00B1012784F851B084F8A9
:1030100050A0384666E770477047000070B590F8DA
:103020003C20012A26D0012480F83C40022280F86E
:103030003D2003685A689D6822F070060A68324392
:103040005A600D4B02689A4208D0B2F1804F05D009
:103050000A4B9A4202D00A4B9A4204D1496825F0A1
:1030600080031943916080F83D40002180F83C10B6
:10307000084670BD022070BD002C014000040040D5
:103080000008004010B5040003D094F83D0010B1D2
:1030900007E0012010BD002084F83C00204600F02D
:1030A0001FF8022084F83D00211D206801F084F9FA
:1030B000012084F8460084F83E0084F83F0084F83C
:1030C000400084F8410084F8420084F8430084F80A
:1030D000440084F8450084F83D00002010BD000045
:1030E00008B500680649884208D10648C16941F020
:1030F0000201C161C06900F00200009008BD00003B
:10310000000400400010024090F83D10012901D059
:1031100001207047022180F83D100168CA6842F022
:103120000102CA6000680B49884208D0B0F1804FA4
:1031300005D00949884202D00849884204D18168F3
:1031400001F00701062903D0016841F00101016087
:1031500000207047002C014000040040000800409F
:1031600070B5044690F83C00012817D0012584F87A
:103170003C50022084F83D002068826822F07702EB
:1031800022F47F4282600868502830D00DDC20286D
:103190004DD005DC98B310283BD148E0022070BD2B
:1031A000302844D0402834D139E0602828D0702815
:1031B00006D0B0F5805F2CD0B0F5005F29D10AE0D1
:1031C000CB68D1E90121206801F039F920688168D4
:1031D00041F0770109E0CB68D1E90121206801F0D5
:1031E0002EF92068816841F48041816011E0CA684D
:1031F0004968206801F0D8F95021206807E016E0FE
:10320000CA684968206801F0E0F96021206801F08F
:1032100020F984F83D50002084F83C0070BDCA6855
:103220004968206801F0C0F940212068EFE7226872
:1032300001461046EBE7704770B504460068016927
:103240004FF00005C943890715D4C168C9438907F0
:1032500011D4E91E01610120207720688069800770
:10326000204602D0FFF7E7FF04E000F0BFF8204659
:1032700000F04EF9257720680169C943490717D442
:10328000C168C943490713D46FF0040101610220EA
:1032900020772068806910F4407F204602D0FFF735
:1032A000CAFF04E000F0A2F8204600F031F92577CB
:1032B00020680169C943090716D4C168C9430907D1
:1032C00012D46FF008010161042020772068C069E2
:1032D0008007204602D0FFF7AEFF04E000F086F83A
:1032E000204600F015F9257720680169C943C90611
:1032F00017D4C168C943C90613D46FF01001016126
:10330000082020772068C06910F4407F204602D052
:10331000FFF791FF04E000F069F8204600F0F8F8AC
:10332000257720680169C943C90708D1C168C94325
:10333000C90704D1891E0161204600F039F92068CF
:103340000169C943090609D4C168C943090605D4FE
:103350006FF0800101612046FFF75DFE2068016982
:10336000C943490609D4C168C943490605D46FF069
:1033700040010161204600F025F920680169C94338
:1033800089060BD4C168C943890607D46FF02001B0
:1033900001612046BDE87040FFF73EBE70BD0000F1
:1033A00000B585B000210091019102910391006860
:1033B0000B49884211D10B48816941F008018161B4
:1033C0008069694600F00800049002200090019096
:1033D000012003900448FEF7F5FF05B000BD000092
:1033E0000004004000100240000C0140704770B51E
:1033F000044690F83C000D4601280AD0012084F8CC
:103400003C0042B1042A18D0082A2AD00C2A4DD1F7
:1034100039E0022070BD206801F024F8206881693D
:1034200041F0080181612068816921F00401816116
:10343000206881692A69114311E0206801F03AF897
:103440002068816941F4006181612068816921F40B
:1034500080618161206881692A6941EA0221816174
:1034600024E0206801F052F82068C16941F00801A9
:10347000C1612068C16921F00401C1612068C1698E
:103480002A69114311E0206801F06CF82068C169D5
:1034900041F40061C1612068C16921F48061C161AA
:1034A0002068C1692A6941EA0221C161002084F8CB
:1034B0003C0070BD10B5040003D094F83D0010B17D
:1034C00007E0012010BD002084F83C00204600F0F9
:1034D0001EF8022084F83D00211D206800F06CFFDA
:1034E000012084F8460084F83E0084F83F0084F808
:1034F000400084F8410084F8420084F8430084F8D6
:10350000440084F8450084F83D00002010BD704759
:103510007047000010B50446022249B104290ED0BC
:10352000082913D094F84100012816D0012010BDBD
:1035300094F83E000128F9D184F83E200FE094F879
:103540003F000128F2D184F83F2008E094F84000C1
:103550000128EBD184F8402001E084F841200122C9
:10356000206800F05FFF0F492068884203D1426C59
:1035700042F4004242642068884208D0B0F1804F93
:1035800005D00949884202D00849884204D181689F
:1035900001F00701062903D0016841F00101016033
:1035A000002010BD002C0140000400400008004035
:1035B00000680349884201D1FFF700B87047000056
:1035C000002C0140704770B5040004D094F83D0011
:1035D000002510B106E0012070BD84F83C50204663
:1035E00000F022F8242084F83D002068C16821F40E
:1035F0000051C160204600F0FBFF2068016921F402
:10360000904101612068416921F02A0141612068EF
:10361000C16841F40051C1602564202084F83D0058
:1036200084F83E00002070BD70B586B00024009480
:1036300001940294039403682648254E0221032234
:103640000515B3421ED1836943F4804383618369C6
:1036500003F480430493836943F004038361806926
:103660001D4E00F0040004900802CDE90001039211
:1036700069463046FEF7A6FECDE90054694630465D
:10368000029420E0154EB3421FD1C36943F4802356
:10369000C361C36903F480230493836943F008037F
:1036A00083618069CDE9005100F00800CDE9032075
:1036B0000B4D69462846FEF785FEE814CDE9000467
:1036C000694628460294FEF77DFE06B070BD0000F4
:1036D000003801400010024000080140004800404E
:1036E000000C01402DE9F84F044690F83E009A4640
:1036F00016460D46202853D1FDB1F6B194F83C0092
:1037000001284DD0012084F83C00002727642220A6
:1037100084F83E002763FEF74BFFA6858146E685C9
:10372000A0684FF48058404501D1206940B12E4631
:103730005FF0000584F83C7027E00120BDE8F88FB9
:103740000026F7E74B46002220212046CDF800A0B6
:1037500000F0AAFF08B10320F0E726B1A0684045B9
:103760001BD038B108E020684068C0F3080025F895
:10377000020B07E0206980B12068406800F07F00FC
:1037800006F8010BE08D401EE085E08D0028D9D1C0
:10379000202084F83E000020D0E720684068EFE752
:1037A0000220CBE72DE9F843044690F83D001F4680
:1037B00016460D4620284CD1C5B1BEB194F83C0048
:1037C000012846D0012084F83C004FF00008C4F8DE
:1037D0004080212084F83D00FEF7EAFEA684814661
:1037E000E684A068B0F5805F03D004E00120BDE866
:1037F000F883206928B12E465FF0000584F83C80EC
:103800000EE00026FAE78021204600F04DFFA0B927
:10381000AEB116F8010B21684860E08C401EE084D0
:10382000E08C4B464FF0000200970028EBD14FF0A0
:103830004001204600F038FF30B10320D7E735F8CB
:10384000020BC0F30800E6E7202084F83D000020CA
:10385000CDE70220CBE7FEE72DE9FE4F074600202B
:1038600088468DF800000190044606460DF10409D3
:1038700002907A6E0121684690470028F9D09DF8A1
:103880000000082813D00D281DD01B280DD02E288D
:1038900054D03038092857D809F80400641CA4B261
:1038A000052C4CD90320BDE8FE8F0220FBE70CB1AC
:1038B000641EA4B20121384602F0BEFD9DF800004E
:1038C0000828D6D03BE0C6B30025DFF880B020E062
:1038D000B54205D2701B401EFCF7A5FD014605E070
:1038E000A81B401CFCF79FFD80F00041584601F0EA
:1038F0008BFD824619F80500FCF795FD5146FCF753
:103900000DFDD8F80010FCF7B1FC6D1CADB2C8F885
:103910000000A542DCD3F96E38468847D8F800008D
:10392000FCF79AFD02460B4609A1384603F000FB5E
:10393000396F384688470120B5E705E02646BA6E5C
:1039400001216846904794E70420ACE7000020413D
:103950000D0A70466C6F61743A25660D0A0000000E
:10396000FEB500243B48009401943949029401605B
:1039700089158160012606730475092505614FF4D8
:1039800060214460C161FEF7B7F908B1FDF747FF58
:1039900003278DE8D00069462E48FEF72BF908B1C1
:1039A000FDF73DFF009602260524CDE90164694636
:1039B0002848FEF71FF908B1FDF731FF6946254891
:1039C000CDE90067FEF716F908B1FDF728FF0426D8
:1039D000CDE9007669461F480297FEF70BF908B15A
:1039E000FDF71DFFCDE9006469461A480294FEF711
:1039F00001F908B1FDF713FF0626CDE90046694637
:103A00001448FEF7F7F808B1FDF709FF00960726FE
:103A100069461048CDE90167FEF7ECF808B1FDF7FB
:103A2000FEFE00960826CDE9016469460948FEF7C6
:103A3000E1F808B1FDF7F3FECDE9006569460548F8
:103A4000FEF7D8F8002801D0FDF7E9FEFEBD000022
:103A500000240140A8110020094808B5416941F03F
:103A6000010141614069002200F001000090012144
:103A70000B20FEF729FEBDE808400B20FEF716BE1E
:103A80000010024010B5A0B000201C901D901CA892
:103A900001F00EFC1F4C20490022A061D1E9000179
:103AA000CDE91E0101211EA801F060FC1A496061E8
:103AB0001C2208316846FCF791FB0021684601F0A2
:103AC0001DFC154960601C22243107A8FCF786FB09
:103AD000002107A801F012FC0F49A0601C22403110
:103AE0000EA8FCF77BFB00210EA801F007FC0A4999
:103AF000E0601C225C3115A8FCF770FB002115A8C2
:103B000001F0FCFB20614FF47A71606901F04EFC1A
:103B100020B010BD18020020988800082DE9F0435D
:103B200085B0002643480096019602960396816967
:103B300041F010018161816901F0100104918169F6
:103B400041F020018161816901F0200104918169C6
:103B500041F004018161816901F0040104918169EE
:103B600041F0080181618069DFF8CC8000F0080035
:103B70000490012245F2C0114046FEF713FDDFF824
:103B8000BC9001224FF409414846FEF70BFD4FF46B
:103B90008057002239464846FEF704FD00224FF4C4
:103BA00004714046FEF7FEFC4FF46040009024484C
:103BB0000124CDE9010469462248FEF703FC41F2E5
:103BC000D030CDE90004032569464046CDE90245E1
:103BD000FEF7F8FBA0038DE8510002266946404637
:103BE0000396FEF7EFFB4FF41060CDE90004CDE93A
:103BF000024669464846FEF7E5FB00970395CDE986
:103C0000014669464846FEF7DDFBE003CDE90004C6
:103C100069464846CDE90245FEF7D4FB002204215F
:103C20002820FEF751FD2820FEF740FD05B0BDE835
:103C3000F083000000100240000C01400008014029
:103C40000000211000100140104810B50E4901601D
:103C50004FF48271416000214FF40062C0E902120A
:103C600092100161C0E905120822C0E907214162F2
:103C700081620A21C162FFF76BF8002803D0BDE81A
:103C80001040FDF7CCBD10BD003001401C120020DB
:103C9000104810B50E4901604FF482714160002157
:103CA0004FF40062C0E9021292100161C0E90512EE
:103CB000C1610162416281620A21C162FFF748F875
:103CC000002803D0BDE81040FDF7A9BD10BD0000DD
:103CD000003800407412002010B58EB00024079404
:103CE000089409940A940B941C2168460C94FCF7E0
:103CF0008EFA20481E49016041F61F41C0E90114B7
:103D000042F21071C0E9031480218161FFF7BAF912
:103D100008B1FDF784FD4FF48050079007A91548BE
:103D2000FFF71EFA08B1FDF77AFD1248FFF7C2FB54
:103D300008B1FDF774FD0B940BA90E480C94FFF726
:103D40006DF908B1FDF76BFD6020009041F28830FD
:103D5000CDE901040C22694606480494FFF747FBAD
:103D600008B1FDF75CFD0348FFF71AFB0EB010BD6C
:103D700000040040CC1200200C4810B50A49016034
:103D80004FF4E1314160002181600C22C160C0E943
:103D900004128161C161FFF716FC002803D0BDE861
:103DA0001040FDF73CBD10BD003801401413002049
:103DB0000C4810B50A4901604FF4E131416000211F
:103DC00081600C22C160C0E904128161C161FFF70A
:103DD000FAFB002803D0BDE81040FDF720BD10BD60
:103DE0000048004058130020F3B597B00D46BDF8C9
:103DF0005C00C0F30B00ADF85C00097811B14FF422
:103E0000304101E04FF440510143ADF85C10687857
:103E1000022823D01F4C362221466846FCF7DEF9E3
:103E2000E08EADF83600A06B0E90A08FADF83C0090
:103E3000E08FADF83E00112204F1400110A8FCF71C
:103E4000CDF994F851008DF85100606D15906878A7
:103E500030B1012804D0022808D105E00E4CDAE781
:103E60000E4F4FF4004601E00D4FBE1400223146C4
:103E70003846FEF797FB4FF6FF73022217A96846F4
:103E8000FFF716F8012231463846FEF78BFB19B0D2
:103E9000F0BD00001C120020741200200008014038
:103EA000000C0140FEE7FEE7407838B1012807D05A
:103EB0004FF4807100220348FEF774BB4021F9E7FC
:103EC0008021F7E7000C014038B54BF2D0700B4D64
:103ED000ADF800004FF48054002221462846FEF73A
:103EE00061FB4FF6FF73022269460548FEF7E0FFCB
:103EF000012221462846FEF755FB38BD000C014043
:103F00007412002070B5084D002400BFC4EBC4003B
:103F100000EB400005EBC00000F008F8641CA4B200
:103F2000032CF3D370BD00000C000020F0B58DB061
:103F300000250446009501950295039540784FF4BD
:103F4000815101EB40171C2104A8FCF760F994F89B
:103F5000A410424801292FD0617840F821506567AC
:103F6000C4F8785004F16C0000260FC88DE80F00EB
:103F7000B006010E04226846FDF73DFC761CB6B281
:103F8000042EF5D3102269463846FDF7F7FB94F866
:103F90006000B4F8A0100002ADF82C0088B2022234
:103FA0000BA98834FDF7EAFBA17F6069883CADF876
:103FB0002C5001291AD01DE094F860100329D1D0AB
:103FC000627850F82210491C40F822103C20B1FBC6
:103FD000F0F060672249206FFCF7A0F92149FCF757
:103FE000CFF9A16FFCF742F9A067BBE74FF48071EE
:103FF000ADF82C1080B202220BA9FDF7BFFB94F89C
:104000005800022817D01C2204F17C0104A8FCF7F8
:10401000E5F80026B006010E042204A8FDF7EBFB2C
:10402000761CB6B2072EF5D3B4F898001C2280B2E5
:1040300004A9FDF7A3FB0C4C084810222178303866
:1040400000EB01106946FCF7C9F82078401CC0B2AB
:104050002070032800D125700DB0F0BD440300206E
:10406000000020410000104200000020084C094ED2
:104070004FF480454FF47A772078294680F001028A
:1040800022703046FEF78EFA384601F005F9F3E764
:1040900018020020000C014038B50B46009204467F
:1040A0000022802100F008F8002804D0606D40F064
:1040B00020006065032038BD2DE9F8431E46914677
:1040C00088460446089DFEF773FA401B351AFEF732
:1040D0006FFA074625480068C0F3CB30684338E0E4
:1040E000701C37D0FEF764FAC01BA84203D215B18A
:1040F000009860B32CE02068416821F0E001416045
:104100006068B0F5827F0BD1A068B0F5004F02D097
:10411000B0F5806F04D12068016821F04001016092
:10412000A06AB0F5005F09D12068016821F4005150
:1041300001602068016841F400510160012084F8A9
:104140005100002084F850000320BDE8F8830025CA
:10415000401E00902068816838EA010004D00021E8
:104160004945BDD10020F0E70121F9E79802002080
:10417000084D0024C4EBC40000EB400005EBC00078
:10418000FCF7A8FF641CA4B2032CF3D3322001F087
:1041900083F8EEE70C0000202DE9FF4714A1174833
:1041A00002F0C6FEDFF858A0002505EB450100240B
:1041B0000AEB810909EB8408D8F85805FCF74CF99B
:1041C00006460F46D8F83405FCF746F98DE8C300DB
:1041D00023462A460BA1094802F0AAFE641CA4B299
:1041E000032CE7D36D1CADB2032DDED3BDE8FF87F2
:1041F0000953507809095351780D0A00041400201E
:104200006C04002043485B25645D5B25645D3A25B2
:1042100066090925660D0A002DE9FF4110A1134822
:1042200002F086FEDFF84880002400BF08EB840718
:10423000D7F8E400D837FCF70FF905460E46386882
:10424000FCF70AF98DE8630022460AA1074802F04C
:104250006FFE641CA4B2032CE8D3BDE8FF8100000C
:1042600009534B7809095347780D0A0004140020BC
:10427000EC09002043485B25645D3A256609092561
:10428000660D0A004378094813B1012B00D0084895
:104290003BB1012B07D04FF480530A461946FEF775
:1042A00081B91023F9E74FF40073F6E7000C0140E1
:1042B0000008014038B5416E04461048814200DDD7
:1042C000606E60666078616E0D4A02EB800555F89D
:1042D000D80FFCF723F8E968FBF7C8FFFCF7A8F84C
:1042E000ADF8000003F00EFA2146BDF80000FFF71C
:1042F0007BFDBDE8384003F025BA000000004040D7
:10430000EC09002010B5502080F31188BFF34F8FC7
:10431000BFF36F8F04F05AF818B104494FF0805082
:104320000860002080F3118810BD000004ED00E05B
:1043300030B593B028216846FBF769FF14210AA81D
:10434000FBF765FF002501200F95109511950104DD
:1043500012958DE8230004904FF4E010CDE9081089
:10436000022407946846FEF763FB08B172B6FEE7C5
:104370000AA90F2081E831004FF48060CDE90D05D6
:1043800002210AA8FEF748FA08B172B6FEE74FF418
:10439000004011900F940FA8FEF7C8F9002801D033
:1043A00072B6FEE713B030BD704700000148FEF75B
:1043B00043BF00009C130020F0B50268164B174C59
:1043C000174D4FF08047984205D0B84203D0A04225
:1043D00001D0A84203D122F070064A6832439842C5
:1043E00005D0B84203D0A04201D0A84203D122F4A4
:1043F0004074CA6822434C6922F080022243026062
:104400008A68C2620A688262984201D109690163BE
:1044100001214161F0BD0000002C0140000400407A
:104420000008004010B501F01F030121046A994003
:104430008C430462016A9A401143016210BD10B5B9
:10444000846842EA032224F47F440A4322438260C0
:1044500010BD826822F070020A4342F007018160B9
:104460007047000030B5026A22F001020262026A5F
:104470004368846924F073050C682C4322F002051C
:104480008A682A430A4DA8420BD122F00805CA685F
:1044900023F440732A434D6922F004021D438B69C3
:1044A0002B434360846149684163026230BD000070
:1044B000002C014030B5026A22F010020262026A4A
:1044C000436884690D6824F4E64444EA05248D6851
:1044D00022F0200242EA05120B4DA8420ED1CD680F
:1044E00022F0800242EA05124D6923F4406343EA58
:1044F00085038D6922F0400243EA850343608461AD
:1045000049688163026230BD002C014030B5026A07
:1045100022F480720262036A4268C46923F4007361
:1045200024F073050C682C438D6843EA05230C4D79
:10453000A8420ED1CD6823F4006343EA05234D69F8
:1045400022F4405242EA05128D6923F4806342EA64
:1045500005124260C4614968C163036230BD000056
:10456000002C014030B5026A22F480520262046AD3
:104570004268C3690D6823F4E64343EA05238D6866
:1045800024F4005444EA0534064DA84204D14D6990
:1045900022F4804242EA85124260C36149680164A4
:1045A000046230BD002C014010B5036A046A24F097
:1045B00001040462846924F0F00444EA021423F044
:1045C0000A020A438461026210BD10B5036A23F037
:1045D000100303628369046A23F4704343EA0232DE
:1045E00024F0A00343EA01118261016210BD0000C2
:1045F00070B5044600680169E26821F44051114336
:1046000001612169A0680843616908432168CA689B
:1046100041F20C639A430243CA6020684169A2696F
:1046200021F44071114341611E492068884202D142
:10463000FEF7B8F901E0FEF7A5F900EBC00101EBC8
:104640000012606864218000B2FBF0F3B3FBF1F369
:104650006FF018067343B2FBF0F5B2FBF0F605EB12
:104660008305322303EB0515B5FBF1F5B6FBF1F637
:1046700005F0F00505EB0615B2FBF0F6B2FBF0F025
:10468000B0FBF1F06FF01802504306EB800003EB33
:104690000010B0FBF1F0216800F00F0028448860A2
:1046A00070BD0000003801402DE9F04198461746E2
:1046B0000E460446069D1DE0681C1BD02DB1FDF77B
:1046C00077FFA0EB0800A84214D92068C16821F444
:1046D000D071C1602068416921F001014161202051
:1046E00084F83D0084F83E00002084F83C0003205C
:1046F000BDE8F0812068006836EA000004D00020A0
:10470000B842D9D00020F3E70120F9E7FEE7000026
:104710000748064980228166064941660649C16606
:104720000649016700F1740102F0C6B95D4700084F
:10473000041400204147000821760008397600085B
:1047400010B50C460A46014601230348FEF7CAFF8E
:1047500000B10024204610BD1413002010B50C46F3
:104760000A4601464FF6FF730348FFF71BF800B1F6
:104770000024204610BD0000141300207CB5044620
:1047800000201D46164600290BD0491ECDE90041E8
:10479000044B6A462946304600F016F9009A00217B
:1047A00011707CBDF75000084100080218BF0420BA
:1047B0000A0E18BF40F001004FF07F4232EA0101BB
:1047C00008BF40F00200012808BF05207047090714
:1047D000090E002804DB00F1E02080F80014704787
:1047E00000F00F0000F1E02080F8141D7047002158
:1047F0004FF07E50FBF7C4BDFBF738BD00210846E3
:10480000FBF7BEBD61214FF0E040FBF7F7BD6FF055
:104810005E010807FBF7F2BD02E008C8121F08C1DD
:10482000002AFAD170477047002001E001C1121F31
:10483000002AFBD170470000014908607047000062
:10484000100300202DE9FF5F82B00021DDE9043074
:10485000020DDDF840B0034318D044F61050A2F228
:10486000FF3242431514119801281FD0A5EB0B000D
:10487000401C5FEA000A4FF000064E4FDFF8389107
:10488000B046504615D5CAF1000413E01198012432
:104890004AA3012801D16FEA0B010298119AC0E9DD
:1048A0000031C0E9024206B0BDE8F09FCBF1000044
:1048B000DFE704460021404A491842EB0450CDE9A5
:1048C000001012E0E00707D032463B46404649461A
:1048D000FBF70FFF8046894632463B461046194695
:1048E000FBF707FF06460F466410002CEAD1DDE90E
:1048F0000401DDE90023BAF1000F06DAFBF7F9FE47
:1049000042464B46FBF7F5FE05E0FBF764FF4246E7
:104910004B46FBF760FF04460E460022284BFCF78F
:1049200007F803D84FF0FF30014607E00022254B7F
:1049300020463146FBF736FEFBF7BCFF102409E0AA
:10494000002C0ADB0A220023FBF7C4FD039B303254
:104950001A55641E50EA0102F2D1641C039AC4F194
:1049600011031444119A012A03D0012208430DD1E6
:104970000AE0084304D000204FF0110B119072E7B9
:10498000A3EB0B056D1E0DE05B4504DD4FF000024F
:1049900005F1010504E003DA4FF00002A5F101057D
:1049A000002AECD002981199C0E90231C0E9004513
:1049B00079E70000000014400000F03F30000000E4
:1049C0000000F0430000E03F2DE9FF4F95B09B460B
:1049D0008946064600250FE2252877D10024274680
:1049E000F84A0121059400E0044316F8013F203BFA
:1049F00001FA03F01042F7D130782A2811D06FF075
:104A00002F033078A0F13002092A16D8059A44F015
:104A1000020402EB820203EB42021044761C059072
:104A2000EFE759F8042B0592002A03DA504244F4C8
:104A30000054059044F00204761C30782E2816D1DC
:104A400016F8010F44F004042A280DD06FF02F024D
:104A50003078A0F13003092B09D807EB870302EB6C
:104A60004303C718761CF3E759F8047B761C3078AB
:104A70006C280FD006DC4C2817D068280DD06A2887
:104A800014D104E0742810D07A280FD10DE044F43A
:104A900000140AE044F4801401E044F440147278F5
:104AA000824202D104F58014761C761C3078662888
:104AB0000BD013DC582877D009DC002875D04528A6
:104AC000F6D04628F4D047281AD19DE118E0632893
:104AD00035D0642879D0652812D195E1702873D03B
:104AE00008DC6728F1D069286FD06E280DD06F28B8
:104AF00006D1B5E073282CD0752875D0782874D0ED
:104B00005A46179990476D1C75E1C4F3025002286C
:104B100009D003280DD0D9F8001004280DD00D605D
:104B200009F1040967E1D9F80010EA17C1E9005258
:104B3000F6E7D9F800100D80F2E70D70F0E719F8EC
:104B4000041B8DF8001000208DF80100EA460120BA
:104B500003E059F804AB4FF0FF3061074FF000015C
:104B600002D40DE008F101018846B9420FDA804510
:104B7000F8DB1AF808100029F4D108E008F1010167
:104B800088468142FADB1AF808100029F6D1059808
:104B90005B46A0EB080721463846179A00F094FAC6
:104BA000284400EB080507E04DE029E10DE01AF884
:104BB000010B5A4617999047B8F10108F7D25B46A6
:104BC00021463846179A13E142E00A220092C4F3C4
:104BD00002524FF0000A022A08D059F804CB032AE7
:104BE0004FEAEC710AD00DE029E02AE009F1070153
:104BF00021F00702F2E802C1914609E00FFA8CFCAD
:104C00004FEAEC71042A03D14FFA8CFC4FEAEC71A5
:104C1000002907DA0A460021DCF1000C61EB0201F1
:104C20002D2202E0220504D52B228DF8042001223A
:104C300003E0E20701D02022F7E7904659E00A217D
:104C400002E010220DE010214FF0000A00910BE06D
:104C500010224FF0000A44F004040827009203E0F9
:104C600008224FF0000A0092C4F30252022A05D033
:104C700059F804CB0021032A08D009E009F1070103
:104C800021F00702F2E802C1914605E01FFA8CFC10
:104C9000042A01D10CF0FF0C4FF00008220728D5A0
:104CA000702806D0009B83F0100353EA0A0305D056
:104CB0000EE040228DF80420012208E05CEA0102A7
:104CC00006D030228DF804208DF80500022290468F
:104CD000009B83F0080353EA0A030AD15CEA01024D
:104CE00001D1620705D530228DF804204FF001086C
:104CF0007F1E582804D034A003900EA802900DE027
:104D000036A0F9E753466046009AFBF7E3FB84467A
:104D10000398825C0298401E029002705CEA0100D7
:104D2000F0D1029806A9081A00F1200A600702D5FE
:104D300024F4803400E00127574502DDA7EB0A0088
:104D400000E0002000EB0A01009005984144401A61
:104D50000590E00306D45B462146179A059800F0BB
:104D6000B3F90544002706E001A85A46C05D17992B
:104D700090476D1C7F1C4745F6DBE0030CD55B4676
:104D80002146179A059800F09FF9054404E0302069
:104D90005A46179990476D1C0099481E00900029AB
:104DA000F5DC08E0029802995A460078491C029105
:104DB000179990476D1CBAF10001AAF1010AF1DCC4
:104DC00065E10000092801003031323334353637CF
:104DD0003839616263646566000000003031323347
:104DE00034353637383941424344454600000000E7
:104DF00000F058F90544761C307800287FF4ECADBB
:104E000019B02846BDE8F08F620700D4062709F1E3
:104E1000070222F0070CFCE80223E14603F00048F9
:104E20005FEA080C02D00FF2702C0DE05FEA045C20
:104E300002D50FF2682C07E05FEAC47C02D00FF2C3
:104E4000602C01E0AFF2700C4FF0FF3823F000430C
:104E5000CDF850C065280CD006DC452809D046287E
:104E60001DD047283DD13DE0662818D067287ED167
:104E700038E00021112F01DB112000E0781CCDE982
:104E8000000106A90EA8FFF7DDFCDDE90F010E9A6F
:104E900003910021009207F1010A04914DE04FF0C7
:104EA00000400097CDE9011006A90EA8FFF7CAFC43
:104EB000DDE90F0203920E9B11990022DDF80CA090
:104EC0000093049211B9791C00EB010AB7EB0A00B8
:104ED00004D4C0F1FF3007F1010A0490AAEB0700E7
:104EE000019044E0012F00DA01270021112F01DD9C
:104EF000112000E03846CDE9000106A90EA8FFF711
:104F0000A1FCDDE90F010E9A0391002104910092AA
:104F1000BA4621070CD40399514500DA8A46BAF102
:104F2000010F05DD009AAAF10101515C302908D07A
:104F3000B84202DA10F1040F06DA0121CDE90110BE
:104F400015E0AAF10101E9E7002805DC0499014414
:104F50000491AAEB000102E0411C514500DD8A46A4
:104F60000499401A401C01904FF000400290200725
:104F700004D40198504501DBCDF8048000208DF861
:104F80004F0002980DF14F07B0F1004F25D02B20B4
:104F90000E9002984FF0020800280CDA404202906E
:104FA0002D200E9007E00A210298FBF77DFA3031A0
:104FB000029007F8011DB8F10001A8F10108F2DC28
:104FC00002980028EFD1791E0E980870307800F012
:104FD000200040F0450007F8020D12A8C01B00F1A8
:104FE00007081498007800B1012000EB0A0101982D
:104FF00001EBE07105984144401A401E0590E00322
:1050000006D45B462146179A059800F05DF80544E2
:105010001498007818B15A46179990476D1CE00310
:1050200024D55B462146179A059800F04DF80544B3
:105030001CE00498002807DBDDE90301884203DD5A
:105040000098405C179901E0179930205A46904724
:10505000049805F10105401C04900198401E019040
:1050600004D12E205A46179990476D1CBAF10001C1
:10507000AAF1010ADDDC05E017F8010B5A46179981
:1050800090476D1CB8F10001A8F10108F4DC5B4603
:105090002146179A0598ABE62D0000002B00000072
:1050A000200000002DE9F041044600251E46174669
:1050B000880404D405E039462020B0476D1C641EE6
:1050C000F9D52846BDE8F0812DE9F04104460025D8
:1050D0001E469046C80301D5302700E020278804EB
:1050E00004D505E041463846B0476D1C641EF9D52D
:1050F0002846BDE8F0814A68002A06D00A68531C99
:105100000B6010704868401E48607047EFF30580E0
:10511000002800D0012070472DE9F0418846044660
:1051200001690068FBF7A2F8606006466169FBF759
:105130009DF801463046FBF723F9E060A768054675
:1051400039464046FBF7E4F82946FBF7E7F83946CD
:10515000FBF78CF80746A06029464FF07E50FBF71E
:10516000D7F83146FBF7DAF820600548874202DBC2
:10517000A068BDE8F0810020E060A060F9E70000D1
:105180000AD7233CFDF722FAFFF7D2F8FEF7C6FC58
:10519000FEF762FCFEF7E4FBFEF70AFEFEF754FDA5
:1051A000FEF776FDFEF798FDFEF7E6FD48221E4964
:1051B0001E48FCF789FE0C211D48FEF7ABF9FEF7EF
:1051C00083FEFFF7A5FAFCF72DFB1A4970220D4666
:1051D0001948FCF765FBF42218491948FCF760FBF5
:1051E0004FF6FF7422466C212846FCF779FC1549DE
:1051F000B1F87C15814203D113A11B4801F098FE40
:105200002246F0210D48FCF76BFC0C49B1F8F01078
:10521000814203D115A1144801F08AFEFEF732FC49
:1052200000F041F8FEE7000088100020A8110020DF
:10523000CC1200207C09002000000108EC090020AD
:10524000000401086C0400200D0A4E6F74653A20BA
:10525000414443206E6F742063616C6962726174B3
:10526000656420210D0A0000041400204E6F74654F
:105270003A20446163206E6F742063616C696272CE
:105280006174656420210D0A0000000001460020C1
:10529000842900D0C81C704710B500B9012002F065
:1052A00005FB002010BD10B502F0BCFB002010BDB6
:1052B00041684FF0040009B102F08DBC02F080BCDF
:1052C00010B5002402F03EFE012800D0FF24204645
:1052D00010BD10B558B100224B1C0AD001B10A46CE
:1052E000114602F0A7FF012806D0FF2010BD802044
:1052F00010BD4FF0FF32F3E7002010BD7FB50D4623
:1053000004464169B0F9080081B1A16971B1FFF7A4
:10531000BDFFD4E905128DE80700D4E900102B4643
:10532000226903F00EF8039004B070BDFFF7AEFFE2
:1053300003A9CDE90001208A2B4682B2D4E90010EE
:1053400002F0D2FF012801D00020EDE70398EBE73F
:1053500010B503F06FF9012801D0FF2010BD002027
:1053600010BD10B502F0A2FB002010BD1CB511C885
:105370006CB1CDE90004012907D000201346024694
:10538000012109A003F0D2F91CBD0120F6E700902D
:10539000012907D0002013460246012102A003F094
:1053A000ABF91CBD0120F6E7000000002DE9FC412F
:1053B000002507462E4601950C0000D10124FFF779
:1053C000A5FE009690B101AB22460921384603F0B4
:1053D000F5F9012812D1019888B10A494FF080509F
:1053E0000860BFF34F8FBFF36F8F08E000232246A2
:1053F0000421384603F0E2F9012800D0FF252846B1
:10540000BDE8FC8104ED00E02DE9F04D0E460023DF
:10541000A0F5000C4FF00071354684B002464FF005
:105420007E5401EB45014FF07F48BCF1FE4F80F008
:105430009F81B1F1804FC0F0DB81FE490144B1F59D
:10544000005F40F2A78200F58021C90C01F00F0730
:10545000C1F307117F39A2EBC15501EB030B3846AD
:10546000FAF7D8FF6FF00301FAF7C8FF4FF07E514B
:10547000FAF7FCFE014602902846FAF749FF019030
:1054800028460299FAF7F2FE00F5006A6FF30B0A5C
:10549000009051460298FAF73BFF2946FAF7E6FEDC
:1054A00002904FF07E500099FAF76AFF0146009093
:1054B0000198FAF733FF00F500656FF30B052846F6
:1054C0000299FAF72BFF029051462846FAF726FF79
:1054D0000199FAF720FF0299FAF71AFF0099FAF7F3
:1054E0001DFF014601902846FAF7C0FE01460290D2
:1054F000FAF714FF8246D049FAF710FFCF49FAF7BE
:10550000B5FE5146FAF70AFF824600212846FAF70F
:1055100075FF009051460298FAF700FF05460021FA
:105520000198FAF76BFF2946FAF7A0FE824601467A
:105530000098FAF79BFE00F500656FF30B0529460E
:105540000098FAF7E5FE5146FAF790FE8246BC490C
:105550002846FAF7E3FE0090BA495046FAF7DEFE15
:105560008246B9492846FAF7D9FE5146FAF77EFE37
:10557000824601460098FAF779FE00F500656FF360
:105580000B0529460098FAF7C3FE5146FAF76EFE5E
:105590008246AE48784450F8371000EBC7000191BE
:1055A00047684FEA0B10FAF735FF0090394650462E
:1055B000FAF75CFE2946FAF759FE0199FAF756FE0A
:1055C0000099FAF753FE00F5006B6FF30B0B58468A
:1055D0000099FAF79DFE0199FAF79AFE2946FAF723
:1055E00097FE3946FAF794FE5146FAF794FE06F50F
:1055F000006782466FF30B0739463046FAF788FE9C
:10560000002100900846FBF7ABF900F00C06394684
:105610005846FAF783FE054620F00040B0F18B4F64
:105620000ADDB8EB400F07D34FF08B4060F31E0547
:105630002F464FF0000A1FE038460099FAF716FE91
:105640005146FAF76BFE074658460099FAF766FE90
:105650003946FAF70BFE824601462846FAF706FE5F
:1056600000F500676FF30B0739462846FAF750FE3E
:105670005146FAF7FBFD824631460C20FBF770F9E4
:1056800051463846FAF7F2FDFBF72CF906460511AC
:10569000FAF7C0FE3946FAF73EFE5146FAF7E6FD44
:1056A00007466B49FAF73AFE6A49FAF7DFFD3946D1
:1056B000FAF734FE6849FAF7D9FD3946FAF72EFEB3
:1056C0000146664806F00F06784450F82600FAF7BF
:1056D00025FE6349794451F82610FAF7C7FD614960
:1056E000794451F82610FAF7C1FD05F17D01FC2936
:1056F00008D22946FAF782FE04B02146BDE8F04DF3
:10570000FAF70CBE05F1BF01B1F5BF7F16D82946E7
:10571000FAF774FE2146FAF701FE0546B8EB450F8D
:105720001AD068000CD02846FFF73EF8042808BFBE
:10573000FFF76DF8284604B0BDE8F08D002D0BDAB8
:105740000220FFF779F8FFF762F80146204604B01F
:1057500061F31E00BDE8F08D0220FFF76DF8FFF742
:1057600051F80146204604B061F31E00BDE8F08DFB
:10577000B1F1804F3CD300BF00F1FF41B1F1FE4FCA
:1057800021D200BF20F00042C5F3C75110467F2947
:105790000DDB9729BFF651AEC1F196014FF0010C18
:1057A0000CFA01F1A1F1010C1CEA050F07D0012050
:1057B000FFF742F804B0BDE8F04DFFF71FB82942EB
:1057C00018BF294C39E641001CBF4FF08071B1EB86
:1057D000400F09D91B21FAF711FE02466FF01A0398
:1057E00010F0004FCED128E6BCF1FE4F18D224E6CF
:1057F000B1F1007F0ED336F0004105D006F0004134
:1058000041F0FC552E46B7E7410018BFB8EB400FFA
:1058100078D8B1E7B1F1807F38BFA5F50006ABD3EA
:1058200020F000416FF0FF4C104C01EB0C03A34241
:105830002FD31DE0001080C07EE24C3EABAAAA3EF2
:1058400000B038423BAA3842D49AB8BBA03400001A
:10585000FC596337C9FF753A1872313D6C3400004A
:1058600020340000D4330000000080BFFFFF3F0061
:1058700025F000439C44A4450BD3B0F17E5F18BFD4
:105880005FEA450C3ED0B1F1FF4F98BFB3F1FF4F37
:1058900005D904B03146BDE8F04DFEF7ADBFB0F11B
:1058A000FF4F0FD0C5F3C7517F2909DB972911DAC4
:1058B000C1F19601012202FA01F14A1E2A4205D0E5
:1058C000002108E015F0004F55D128E0294218BF0B
:1058D000012100D1022110F5000F14D020B3B0F146
:1058E000004F27D010F1814F4ED04FF0FE41B1EB69
:1058F000400F94BF01200020012101EBE571884297
:1059000039D10CE040E015F0004F02D0012936D02B
:1059100031E0012902BF3F4804B0BDE8F08D4FF0EF
:10592000FF4004B0BDE8F08D15F000400ED104B08A
:10593000BDE8F08DB5F1FF4F1DD015F5000F05D076
:1059400015F0004F14D009B1012907D00220FEF74D
:1059500073FF04B0BDE8F04DFEF749BF0220FEF72B
:105960006BFFFEF744FF04B080F00040BDE8F08D0F
:1059700009B1012903D004B00020BDE8F08D04B0C6
:105980004FF00040BDE8F08D04B04FF07E50BDE810
:10599000F08D00BF4FF07E51FAF7BAFC05466FF06C
:1059A0000101FAF72BFD1C49FAF7B5FC2946FAF775
:1059B000B5FC4FF07C51FAF7AEFC07462946084685
:1059C000FAF7ACFC80F000403946FAF7A7FC8246B3
:1059D00012492846FAF7A2FC074611495046FAF741
:1059E0009DFC82460F492846FAF798FC5146FAF783
:1059F0003DFC054601463846FAF738FC00F5006BD9
:105A00006FF30B0B59463846FAF782FC2946FAF732
:105A10002DFCECE5000080FFABAAAA3E00B0B84127
:105A20003BAAB841D49A38BB2DE9F041184C0F4637
:105A3000054666692068001D01F008FE38B9206837
:105A400090F82C1001208840A1698143A161681C55
:105A500007D137B12168BDE8F0410E48091D01F0BA
:105A600045BE20683544B5424560216805D2A0682E
:105A7000BDE8F041091D01F021BE6068091D01F07B
:105A80001DFE206B854200D22563BDE8F081000039
:105A90009C020020341600202DE9F041054601F05B
:105AA00031FE2E4C2069401C206120682C4F10B123
:105AB000E06940B32DE025602069012829D1002646
:105AC00006EB860007EB800001F0EAFD761C072E4E
:105AD000F6D323488C3001F0E3FD2148A03001F0DB
