:020009000000F5
:1010F8005B07E5000000320100FF2D300000000A08
:101108000100FF2969000000640100FF29A94107C7
:02111800E403EE
:102B2F00C2A37FC87E001228DED2A3D2A0121A62DF
:102B3F001229E9122CA9122D0F121977122925D259
:0B2B4F00AFC2A912262ED2A980F722E7
:10197700750D00750D009007E4E0FFE50DC39F406E
:1019870003021A61AF0DEF75F009A424E5F582E4AF
:101997003407F583E0FEA3E0FFAD0D75F009EDA474
:1019A7002409F582E5F03400F583EEF0A3EFF0AFFC
:1019B7000DEF75F009A424E7F582E43407F583E019
:1019C700FEA3E0FFAD0D75F009EDA4240BF582E54C
:1019D700F03400F583EEF0A3EFF0AF0DEF75F009EB
:1019E700A424E9F582E43407F583E0FFAE0D75F032
:1019F70009EEA4240DF582E5F03400F583EFF0AF8E
:101A07000DEF75F009A424EAF582E43407F583E0C5
:101A1700FFAE0D75F009EEA4240EF582E5F0340053
:101A2700F583EFF0AF0DEF75F009A424EBF582E431
:101A37003407F583E0FBA3E0FAA3E0F9AF0D75F0F7
:101A470009EFA4240FF582E5F03400F583EBF0A34A
:0A1A5700EAF0A3E9F0050D02197D85
:011A61002262
:10262E00750E00750E009007E4E0FFE50EC39F5097
:10263E004EAF0E75F009EFA4240EF582E5F03400CE
:10264E00F583E0FF7E00EF64014E702FAF0E75F044
:10265E0009EFA4240FF582E5F03400F583E0FBA327
:10266E00E0FAA3E0F912097BAF0E75F009EFA4248E
:0F267E000EF582E5F03400F583E4F0050E80A739
:01268D00222A
:102D3000750F00750F00AF0F7E00C3EF9403EE64B4
:0E2D40008094805009AF0F122AA0050F80E882
:012D4E002262
:10296900900823E4F0900823E4F0900823E0FF7E28
:1029790000C3EF9403EE648094805023900823E011
:10298900FF7E3FEF8EF0A4FFAEF074A12FF974041F
:0F2999003EFA7B0112222F900823E004F080CB3E
:0129A800220C
:1029A900900824E4F0900824E4F0900824E0FF7EE5
:1029B90000C3EF9403EE648094805023900824E0D0
:1029C900FF7E3FEF8EF0A4FFAEF074A12FF97404DF
:0F29D9003EFA7B01120EE9900824E004F080CB57
:0129E80022CC
:101A62007BFF7A007909C003C002C0017B017A08BA
:101A7200791DA801AC02AD03D001D002D0037E00D3
:101A82007F0212066790081D7402F090081E7423EC
:101A9200F07B017A08791D7F001212AB90081DE4D9
:101AA200F090081E7401F07B017A08791D7F011203
:101AB20012AB90081D7403F090081E7402F07B01B3
:101AC2007A08791D7F011212AB90081D7402F09002
:101AD200081E743CF07B017A08791D7F011212AB5B
:101AE20090081D7402F090081E7480F07B017A0841
:101AF200791D7F021212AB90081DE4F090081E744B
:101B020001F07B017A08791D7F031212AB90081D48
:101B12007403F090081E7402F07B017A08791D7F2D
:101B2200031212AB90081D7402F090081E7410F09C
:0B1B32007B017A08791D7F041212ABC2
:011B3D002285
:060003009000010206A6B8
:1012AB00EFD394057480948040037F012212068D46
:1012BB00FED394037480948040037F0222EF703836
:1012CB00EE7008120003F45293529412068D6401CF
:1012DB0070081200034293F4529412068DFE6402BE
:1012EB00700712000342934294EE6403700A1200DB
:1012FB0003FEF45293EE4294EF6401703A12068DA2
:10130B00FE7008120003F452915292EE64017008C1
:10131B001200034291F4529212068D64027007126E
:10132B0000034291429212068D6403700A1200036D
:10133B00FEF45291EE4292EF6402703A12068DFE69
:10134B007008120003F452955296EE640170081265
:10135B0000034295F4529612068D64027007120038
:10136B00034295429612068D6403700A120003FE27
:10137B00F45295EE4296EF6403703A12068DFE70AE
:10138B0008120003F452B152B2EE6401700812005D
:10139B000342B1F452B212068D64027007120003BD
:1013AB0042B142B212068D6403700A120003FEF4BE
:1013BB0052B1EE42B2EF6404703A12068DFE700821
:1013CB00120003F452B352B4EE640170081200031E
:1013DB0042B3F452B412068D64027007120003423A
:1013EB00B342B412068D6403700A120003FEF4526A
:1013FB00B3EE42B4EF6405703D12068DFF7E0070B4
:10140B0008120003F452C952CAEF64014E7008125D
:10141B00000342C9F452CA12068D6402700712000F
:10142B000342C942CA12068D6403700A120003FFFD
:09143B00F452C9EF42CA7F0022FD
:1029E900900000E4F0900001747FF090000274F010
:1029F900F090000374A8F0A3741CF09000067420F2
:102A0900F09000057420F09000077401F090000820
:0D2A19007401F07B017A007900121885220B
:10188500900817EBF0A3EAF0A3E9F0900817E0FB46
:10189500A3E0FAA3E0F912068DFFEF12095518AA85
:1018A5000000001976900817E0FBA3E0FAA3E0F921
:1018B5007582017583001206A6FFEF528E900817F8
:1018C500E0FBA3E0FAA3E0F9758202758300120636
:1018D500A6FFEF5289900817E0FBA3E0FAA3E0F911
:1018E500758203758300120733FFAEF08F8A900867
:1018F50017E0FBA3E0FAA3E0F975820375830012F4
:101905000733FFAEF0EEFF7E008F8C900817E0FBEB
:10191500A3E0FAA3E0F97582067583001206A6FF17
:10192500EF42B8900817E0FBA3E0FAA3E0F975824F
:10193500057583001206A6FFEF42B7900817E0FB76
:10194500A3E0FAA3E0F97582077583001206A6FFE6
:10195500EF24FF92A9900817E0FBA3E0FAA3E0F9B2
:101965007582087583001206A6FFEF24FF928CC2CC
:021975008D22C1
:03000B00021B3E97
:101B3E00C0E0C0F0C083C082C0D075D000C000C06D
:071B4E0004C005C006C0073A
:101B55007510007510009007E4E0FFE510C39F4085
:101B650003021BFFAF1075F009EFA4240DF582E504
:101B7500F03400F583E0FF7E00EF64014E7076AF30
:101B85001075F009EFA42409F582E5F03400F5831A
:101B9500E475F001120707AF1075F009EFA4240BE7
:101BA500F582E5F03400F583E0FEA3E0FFAD1075A6
:101BB500F009EDA42409F582E5F03400F583E0FC95
:101BC500A3E0FDEDB5072EECB5062AAF1075F009BB
:101BD500EFA4240EF582E5F03400F5837401F0AF2F
:101BE5001075F009EFA42409F582E5F03400F583BA
:0A1BF500E4F0A3E4F00510021B5B0E
:101BFF00D007D006D005D004D000D0D0D082D0836B
:051C0F00D0F0D0E0322E
:101685000000000000000000000000000000000055
:101695000000000000000000000000000000000045
:1016A5000000000000000000000000000000000035
:1016B5000000000000000000000000000000000025
:1016C5000000000000000000000000000000000015
:1016D5000000000000000000000000000000000005
:1016E50000000000000000000000000000000000F5
:1016F50000000000000000000000000000000000E5
:1017050000000000000000000000000000000000D4
:1017150000000000000000000000000000000000C4
:1017250000000000000000000000000000000000B4
:1017350000000000000000000000000000000000A4
:101745000000000000000000000000000000000094
:101755000000000000000000000000000000000084
:101765000000000000000000000000000000000074
:101775000000000000000000000000000000000064
:10274A00900331E0FBA3E475F00112071DA9F0FA2A
:10275A0002068DA3F0E4A3F0A374FFF0A374C6F0FD
:10276A00A3E04401F0A37401F0A32290000312072E
:10277A0033AEF022EBF0A3EAF0A3E9F02290032EA5
:10278A00E0FBA3E0FAA3E0F9229000010206A6907A
:0B279A0000020206A69000060206A640
:102CA9009007B87401F0745012275D7440F054FE17
:102CB900F09007C174EFF0A3F07B017A0779B802AD
:022CC9001CE00D
:03002300022D6E3D
:102D6E00C0E0C083C082309909C2999007C0E05478
:0E2D7E00FEF0309802C298D082D083D0E032AE
:102D0F009007C37402F0741012275D7414F09007CB
:102D1F00CC7401F0A374FEF07B017A0779C3021C17
:012D2F00E0C3
:03004300022C3F4D
:102C3F00C0E0C083C082E59A30E10A539AFD900745
:102C4F00CBE054FEF0E59A30E003539AFED082D0E9
:042C5F0083D0E0320C
:101CE00012068DFD6401703B122793F59812279917
:101CF0004289122775F58BEEF58D9000051206A628
:101D000013928E9000071206A6428E9000091206CA
:101D1000A652B890000A1206A652B712279F24FFB7
:101D200092AC227C00ED6402702B122793F59A127C
:101D30002775F5D7EEF5D69000071206A6428E124B
:101D4000279F42AF9000091206A652B590000A12D2
:101D500006A652B622ED64034C7014122793F5AC1C
:101D6000122799F5D1122775F5D5EEF5D480191201
:101D7000068D64047017122793F58412279942D1B7
:0E1D8000122775F5D3EEF5D212279F42AF223F
:102CCB009000081206A630E00AED1DAE0470011C40
:102CDB004E70EDE92408F9E43AFA12068D4401022C
:022CEB0006D30E
:1027FB0090032E12277E900334E0FF14F0EF60401D
:10280B00122787900335E0FCA3E0FD122CCB122797
:10281B008712068D24FE601114601514601A2403B0
:10282B0070D412274AF59980CD12274AF59B80C6A2
:10283B0012274AF5AD02280112274AF58502280115
:01284B00226A
:06232C0090033912277E28
:10233200E4FFFE78677C037D017BFF7A1679850EC8
:102342001206679004677401F0A37403F0A3743F4C
:10235200F090033CE0F9A3E0FAA3E090080DC91263
:10236200277F900467E0F9A3E0FAA3E0900810C980
:1023720012277F7B017A03796712284C900467E465
:10238200F0A3F0A3F090033104F0A37403F0A3745C
:1023920067F0A3EFF0A37413F0A37488F0900339ED
:0623A20012278A0227FB4E
:102AD3009001DDEFF07D01122B819001DDE0FF7DA0
:102AE30001122B5A12000E9001DDE0FFE4FD122BC0
:0E2AF3008112000E9001DDE0FFE4FD022B5A7F
:102BF5009001DDEFF0E4FD122B819001DDE0FF7D1A
:102C050001122B5A7F057E00122D8C9001DDE0FF0D
:052C15007D01022B818E
:0A24FF009001DEEDF09001DDEFF03A
:10250900E49001DFF0FD122B5A12000EE49001DF76
:10251900F09001DFE0C39408E4940050419001DE9B
:10252900E09001DD30E706E0FF7D018004E0FFE493
:10253900FD122B819001DEE0FF25E0F012000E90E4
:1025490001DDE0FF7D01122B5A12000E9001DDE042
:0E255900FFE4FD122B5A9001DFE004F080B386
:012567002251
:102568009001DEECF0A3EDF09001DDEFF07D0112BB
:102578002B8112000E9001DDE0FF7D01122B5A1213
:10258800000E9001DDE0FF7E007004A2A7800CEF32
:1025980064014E7004A2858002A29450199001DE55
:1025A80074FFF5F012070745F07002FF227F017EE5
:1025B80000122D8C80CC9001DDE0FFE4FD122B5A37
:0325C8007F01226E
:102A26009001D4EFF0E4FD122B817F057E00122D7C
:102A36008C9001D4E0FF7D01122B5A7F057E001297
:102A46002D8C9001D4E0FFE4FD122B5A7F057E0009
:0D2A5600122D8C9001D4E0FF7D01022B8138
:102B01009001D4EFF07D01122B819001D4E0FFE41C
:102B1100FD122B5A12000E9001D4E0FF7D01122B01
:0E2B21005A12000E9001D4E0FFE4FD022B5A80
:052422009001D4EFF071
:10242700E4A3F0A3F07D01122B81E49001D6F09094
:1024370001D6E0C39408E49400504B9001D5E02501
:10244700E0F09001D4E0FF7D01122B5A12000E90AC
:1024570001D4E0FF7E007004A2A7800CEF64014E58
:102467007004A2858002A29450079001D5E0440130
:10247700F09001D4E0FFE4FD122B5A12000E9001F8
:0B248700D6E004F080A99001D5E0FF32
:012492002227
:102B5A007E01EF14600E14601224027015ED24FF3A
:102B6A0092808010ED24FF92928009ED24FF92C496
:062B7A008002E4FEAF063C
:012B80002232
:102B81007E01EF14600E14601224027015ED24FF13
:102B910092A78010ED24FF92858009ED24FF929485
:062BA1008002E4FEAF0615
:012BA700220B
:102D8C0090081FEEF0A3EFF000000090081F74FFF6
:0E2D9C0075F0FF120707AFF0FEEF4E70EB224E
:10000E009008257405F0900825E014FFF0EF70F6C7
:01001E0022BF
:0828DE00900813EEF0A3EFF0E7
:1028E600900815E4F0900816E4F0000090081574BE
:1028F60024F0900816740DF0900816E014FFF0EF1F
:1029060070F6900815E014FFF0EF70EC9008137461
:0E291600FF75F0FF120707AFF0FEEF4E70CC1A
:012924002290
:10111A00205422000000000000000000000000002F
:10112A0000000000000000000000000000000000B5
:10113A0000000000000000000000000000000000A5
:10114A000000000000000000000000000000000095
:10115A000000000000000000000000000000000085
:10116A00000000000000004D08000131C07CC046AC
:07117A0029C73A0481092294
:0C2DC200EDF0A3EBF0A3EAF0A3E9F0228F
:10292500E49001CBF0A37402F0E49001CBF09001A8
:10293500CBE0FFC394037480948050227B017A0816
:1029450079009001DB740DF0E4FD122099EF70061B
:102955009001CC7403F09001CBE004F080D090019D
:03296500CCE0FFC4
:01296800224C
:052AA0009001CBEFF0F6
:102AA500A37402F09001CBE075F01CA42422F9E494
:102AB500FAFBE0FF9001D2741CF0E4FD121C14EF48
:0D2AC50070069001CC7403F09001CCE0FF8E
:012AD20022E1
:10002600EF14600D14601024027011ED24FF92810C
:0D00360022ED24FF929322ED24FF929522EB
:0B2099009001D7122DC29001D6EFF08D
:1020A400E49001DCF0122AD39001D6E0FF7DE8121F
:1020B40024FF9001D6E0FF7D007C01122568EF70BB
:1020C40002FF229001D6E0FFA3E01221187002FF64
:1020D40022E49001DCF09001DBE0FFA3E0FEC39F6B
:1020E40050279001D6E0FF9001D8E0FBA3E0FAA3CB
:1020F400E0F98E827583001206A61221187002FF81
:10210400229001DCE004F080CD9001D6E0FF122B98
:03211400F57F0153
:1021170022FD1224FF9001D6E0FF7D007C011225ED
:0321270068EF223C
:0B1C14009001CE122DC29001CDEFF028
:101C1F00E49001D3F0122AD37DE8121CCA7002FFA0
:101C2F00229001CDE0FFA3E0FD1224FF9001CDE053
:101C3F00FF7D007C01122568EF7002FF229001CD1D
:101C4F00E0FF122AD37DE9121CCA7002FF22E49032
:101C5F0001D3F09001D2E0FFA3E0C39F504A90015F
:101C6F00CDE0FF1224229001CFE0FBA3E475F00139
:101C7F0012071DA9F0FAEF1206D39001D2E0FFD39D
:101C8F009401748094804018EF24FFFFE434FFFE2A
:101C9F00A3E0C39FE49E50089001CDE0FF122A26D7
:101CAF009001D3E004F080AB9001CDE0FF122B0147
:0A1CBF009001CDE0FF122BF57F012C
:101CC900229001CDE0FF1224FF9001CDE0FF7D00BD
:071CD9007C01122568EF22D7
:102896000000000000000000000000000000000032
:1028A6000000000000000000000000000000000022
:1028B6000000000000000000000000000000000012
:1028C6000000000000000000000000000000000002
:0828D6000000000000000000FA
:101181006030047100000000000000000000000059
:10119100000000000000000000000000000000004E
:1011A100000000000000000000000000000000003E
:1011B1000000000060BD04A1000200040000000066
:1011C100000000000000000000000000000000001E
:1011D100000000000000000000000000000000000E
:1011E1000000000000001010000020000000102886
:1011F10000000040A0000001020004000000000007
:1012010000000000000000000000000000000000DD
:1012110000000000000000000000000000000000CD
:1012210000000000001030000020100000104800F5
:10123100000040A0000002020004000000000000C5
:10124100000000000000000000000000000000009D
:10125100000000000000000000000000000000008D
:101261000000000010500000202000001068000065
:101271000040A000006020055E403C28F5408666E5
:101281006640BC28F541066666410D1EB841499984
:1012910099413C28F54186666641046A0043046B26
:0912A10000000043046E0000008F
:101573009001CBE0FBA3E0FAA3E0F922743A9001D7
:10158300D5F012068D7A0179D5FF7B019001DB74CA
:1015930001F022EBF0A3EAF0A3E9F0229000041299
:1015A3000867E4FBFAF9784074F00202E6A3A3E0CB
:1015B300FEA3E0FF7B01900226E4F0A322F583E083
:1015C300FCA3E0FDA3E0FEA3E0FF9001D6E0F8A3B7
:1015D300E0F9A3E0FAA3E0FB74F00202E6F8E67593
:1015E300F004A42DFDEC35F0FCE4120362E4FBFAF5
:1015F3007980783F12004DE4FBFA2212068D246BAA
:10160300F582E43404F583229000081208677B9A7C
:101613007A997999783E74F00202E69000021206F4
:10162300A6FCE4020367F8E654C0FEC41313540394
:10163300FD7C00EF75F01CA4227D017BFF7E000280
:1016430006679001D47401F0229000021206E5901F
:1016530001D5221208679000041208D574F0020223
:10166300E6784012013E9001CE22740390000302FB
:1016730006E59000030206A6246EF582E43404F521
:021683008322C0
:060EE9009001CB121596EA
:100EEF0078CE7C017A2879967F1012163C121573F2
:100EFF0012068D75F020A4FDACF02420FEEC34100A
:100F0F009001DEF0A3CEF0E42DFEEC3430A3F0A37D
:100F1F00CEF078E27C017A2879A67F3812163CE46D
:100F2F00FDEDFF7E00C39438EE9400503174E22D36
:100F3F00F582E43401F583E4F0C313EF13FF1215C8
:100F4F007312068D75F01CA424222FF8E6FF74E3AC
:100F5F002DF582E43401F583EFF00D0D80C31215EA
:100F6F00739000381206A664017047121675640359
:100F7F00605790000C120867EF2401FFE43EFEE477
:100F8F003DFDE43CFC90000C1208B1E92410F9E49B
:100F9F003AFAC003C002C00112084712157390003D
:100FAF00081208D512004DD001D002D003120897B5
:100FBF00801712157390000C120911000000009099
:100FCF000010120911000000001215739000041296
:100FDF0008679001CE12090590000812086790016A
:100FEF00D212090590000C120867E47B3CFAF9F85D
:100FFF001207A79001D6120905121573900010124F
:10100F000867E4FBFA7920784112013EE4FBFA7994
:10101F001078421202479001DA1209059001DEE0C2
:10102F00FEA3E0FF7B017A0179CE1215B97410F09F
:10103F00121ECB121573121675FFC00790003412D3
:10104F00086790021B120905D007122DAA121573FB
:10105F009000391206A6FFC0079000301208679063
:10106F00021B120905D007122C8612157390002C43
:10107F00120867E92414F9E43AFA1215B97418F052
:10108F00121ECB9001E0E0FEA3E0FF7B017A017915
:10109F00E21215B97438F0121ECB90046AE075F0A5
:1010AF0010A42471F9740435F0A801FC7D017B01B3
:1010BF007A0179CE7E007F1012066790046AE004F1
:1010CF00F06403702390021F7430F0A37401F0A337
:1010DF007404F0A37471F07B187A00E4FDFC7F02B6
:0810EF0012212AE490046AF0CA
:0110F70022D6
:102C630012068DFF75F01CA4243612162924351282
:102C730015E079167844120247E4FBFA794078416B
:032C830002013E0D
:102A63009001CE1215969001CE12157612068DFFA7
:102A730075F01CA4243212162924311215E0F978BA
:102A83004012013E9001CE12157690003B1208D5FC
:0D2A930012013EE4FBFA797A784402024712
:06268E009001D6120905BF
:102694009001DAE4F0A37404F0E4A3F0F09001DC18
:1026A400E0FFFDD39001DBE09D9001DAE09400406F
:1026B40036EF75F008A4245EF582E434051215C0E3
:1026C400601C401A9001DCE075F008A42462F582D5
:1026D400E434051215C050069001DCE0FF2290019D
:0926E400DCE004F00226A17F04F1
:0126ED0022CA
:061444009001D112159683
:10144A00E4A3F0A3F09001D11215769000041208DB
:10145A006712268EEF14604914607C14700302151B
:10146A001E2403600302155F9001D11215769000C5
:10147A000274011206E574011215811215656003E2
:10148A001216459001D112157690003B12091140AF
:10149A00A0000012157F12156C700302155F021569
:1014AA005C9001D1121576740212164C7409121549
:1014BA008412156560031216459001D112157690B3
:1014CA00003B12091140A0000012157F12156C7022
:1014DA000302155F02155C9001D11215767403128E
:1014EA00164C7411121584E4FD122099EF60031250
:1014FA0016459001D112157690003B120911414808
:10150A0000009001D574381215847D08122099EFD5
:10151A006043803E9001D112157690000274041245
:10152A00164F7419121584E4FD122099EF60031204
:10153A0016459001D112157690003B1209114148C7
:10154A0000009001D574381215847D08122099EF95
:0A155A0060031216459001D4E0FF73
:0F15640022E4FD122099EF227D08122099EF2238
:102CED00AF05A8077401088002C333D8FCFF120694
:102CFD008D75F01CA42439F8E65F60037F01227FF7
:012D0D0000C5
:012D0E0022A2
:0626EE009001CE121596CA
:1026F400E4A3F07D06122CEDEF60249001D1742444
:10270400F09001CE12157612068D7A0179D1121548
:102714008C7D09122099EF70037F02227F012290A1
:1027240001D17404F09001CE12157612068DFF7B50
:10273400017A0179D112158F7D09122099EF700366
:052744007F02227F006E
:01274900226D
:10222F009001CB1215969001CB1215761226EE90D7
:10223F0001CB121576122A639001CB1215769000FE
:10224F00041208B1122C639001CB1215769000087E
:10225F001208B19000381206A670329001CB1215F9
:10226F0076122000EF64019001CB70161215769054
:10227F00003874011206E590003974011206E50268
:10228F0022AF12157690000374040206E59001CB7D
:10229F001215761224939001CB1215761225CB22AC
:062000009001CE121596BE
:1020060012159F503E9001CE121576900001E412F3
:1020160006E51215FEE0702E9001CE12157612140A
:1020260044EF7002FF229001CE12157612068DFF44
:10203600E4FD1200269001CE1215761215FE7401EB
:10204600F080037F00229001CE12157612160B50F7
:102056000E9001CE1215761215FEE4F07F01229045
:1020660001CE12157612068D12167BE004F0C3948B
:1020760032E49400401A12068DFF12167BE4F07DBE
:10208600011200269001CE12157612166D7F0122DE
:022096007F00C9
:012098002225
:1022AF009001CE1215969001CE12157612161E7B46
:1022BF00F57A28793C1216641215769000181208D8
:1022CF00B19000141209113E4CCCCD12161E7B4555
:1022DF007AB679831216641215769000201208B11F
:1022EF009000041208D57F667E667D067C4112023F
:1022FF00479001CE12157690001C1208B112161ECF
:10230F007B667A667986121664121576900028120B
:0D231F0008B19000241209113E99999A22EC
:102493009001CE1215969001CE1215761216756420
:1024A30003605812159F600F400D9001CE121576F0
:1024B300900003740480419001CE121576900018A9
:1024C3001216566002500C9001CE1215769000033E
:1024D300E480259001CE12157690002812165690AE
:1024E30001CE6002500A1215769000037401800831
:0C24F30012157690000374021206E52218
:1025CB009001CE1215969001CE1215767D01122C2C
:1025DB00EDEF6401701D9001CE12157612159F5010
:1025EB00129001CE12157612166D12068DFF7D011B
:1025FB001200269001CE121576122BCFEF640170CC
:10260B00219001CE121576900038E41206E5740481
:10261B0012166F90000174021206E5900039E41255
:03262B0006E5229F
:102BCF009001D11215969001D112157612160B6045
:102BDF001240109001D112157612159F6005400317
:062BEF007F01227F00229D
:102C8600E490021FF0A3F0EF6401700790021FF0BA
:102C9600A304F090021B7A02791F1215B07402F099
:032CA600021ECB40
:102DAA0090021FE4F0A3EFF090021B7A02791F123F
:082DBA0015B07402F0021ECBFB
:101785000000000000000000000000000000000054
:101795000000000000000000000000000000000044
:1017A5000000000000000000000000000000000034
:1017B5000000000000000000000000000000000024
:1017C5000000000000000000000000000000000014
:1017D5000000000000000000000000000000000004
:1017E50000000000000000000000000000000000F4
:1017F50000000000000000000000000000000000E4
:1018050000000000000000000000000000000000D3
:1018150000000000000000000000000000000000C3
:1018250000000000000000000000000000000000B3
:1018350000000000000000000000000000000000A3
:101845000000000000000000000000000000000093
:101855000000000000000000000000000000000083
:101865000000000000000000000000000000000073
:101875000000000000000000000000000000000063
:1023A800900786F0A3F090078675F00112071DFECE
:1023B800740625F0F58274073EF583745AF0900789
:1023C80086E475F00112071DFE740625F0F5827487
:1023D8000722FF900786E475F00102071DEBF0A3C2
:1023E800EAF0A3E9F022F0A37413F0A37488F07B59
:1023F800017A0779B822900229E0FBA3E0FAA3E06A
:10240800227B017A077906900786E0FCA3E0FD228B
:0A241800A3F0E4900335F0A3F022D6
:0C1E2F009002291223E5A3ECF0A3EDF0D3
:101E3B00E4FFFE782E7C027D017BFF7A1779850EFD
:101E4B0012066790022CE0FEA3E0FF782E7C027D49
:101E5B00011223FEF91206671223FE2403F9E43A5A
:101E6B00FA90022DE024FDFD90022CE034FFFC746F
:101E7B00FF900333F0A3F0121D8E90022C1223DE81
:101E8B00FA742E25F0F58274023AF583EFF0EEFF2B
:101E9B0090022C1223DEFC742E25F0F58274023C8A
:101EAB00F583EFF09003317401F0A37402F0A37487
:101EBB002EF090022CA3E09003341223EE0227FBAA
:102D4F0090081A1223E590081AE0F9A3E0FAA3E01D
:0F2D5F00900331C91223E6A3ED1223EE0227FBE6
:0C1ECB00900221EEF0A3EFF0A31223E53B
:101ED700E4900228F01223A83EF58374A5F090023F
:101EE70026A3E024051223DAFC1223D13CF583EF65
:101EF7001223C53EF5837482F0900221E0FCA3E033
:101F0700FDEC1223DAFA1223D13AF583EFF012230C
:101F1700DBFC1223D13CF583EDF0E4900228F0902E
:101F27000228E0FFD3900227E09F900226E094006A
:101F37004027900223122401F9900228E0F58275C8
:101F470083001206A61223DAFC1223D13CF583EF95
:0F1F5700F0900228E004F080C6122409021E2F29
:1027A500900821ECF0A3EDF0AB07AA06E41223A8EC
:1027B5003EF58374A51223C53EF58374061223C521
:1027C5003EF5837483F0EA1223DAFC1223D13CF53B
:1027D50083EFF01223DBFC1223D13CF583EBF09061
:1027E5000821A3E01223DAFC1223D13CF583EFF094
:0627F500122409021E2F50
:0A1D8E0090032E1223E5A3ECF0ED04
:101D9800122418900333E0FFA3E0900337CFF0EF4D
:101DA800122418900331E0FEA3E0FFC3900336E04D
:101DB8009F900335E09E506690032EE0FBA312230C
:101DC800DEA9F0FA12068DFF900337E0F0A3E06F6A
:101DD800F0E4FCFD900337E0FEA3E0FF30E019EEED
:101DE800C313FEEF13FFEE64A0FEEF6401FF900340
:101DF80037EEF0A3EFF0800B900337E0C313F0A3A6
:101E0800E013F00DBD00010CED64084C70C69003A2
:101E180036E004F0708D900335E004F0808590037F
:061E280037E0FEA3E0FF1D
:011E2E002291
:102C1A00E0FF900682E475F00112071DFC7402259C
:102C2A00F0F58274063CF58322900223E0FBA3E0D0
:052C3A00FAA3E0F922FD
:08212A0090021BECF0A3EDF0A4
:10213200E4900682F0A3F0900682122C20EFF09039
:102142000682E475F00112071DFE740225F0F58285
:1021520074063EF5837446F090021B122C1AEFF0BF
:1021620090021BA3122C1AEFF0EA122C1BEFF012B2
:102172002C1CEBF090021F122C1AEFF0E4FF9002DD
:102182001FE0FEEFC39E5015A3122C368F8275837B
:10219200001206A6FE122C1CEEF00F80E17B017AE3
:0C21A200067902900682A3E0FD0221AE47
:0E21AE00900223EBF0A3EAF0A3E9F0A3EDF01A
:1021BC00FF7E0078277C027D01122C3312066712F9
:1021CC002C33A3E0FD7C0074FF900333F0A3F012DA
:1021DC001D8EAD07900226E0FC04F074272CF582CE
:1021EC00E43402F583EDF0EEFF900226E0FE04F0FD
:1021FC0074272EF582E43402F583EFF090033174EA
:10220C0001F0A37402F0A37427F0900226E090036F
:10221C0034F0A37413F0A37488F07B017A0779C3AC
:03222C000227FB8B
:03000000021F6676
:101F6600787FE4F6D8FD9000007F007E20E4F0A3A1
:0A1F7600DFFCDEFA758175021FBB67
:100046000203D0E86480F8E933E83360110460F015
:10005600ED33EC337009E8FCE9FDEAFEEBFF220420
:1000660060DED3EB9FEA9EE99DE8C2E78CF0C2F71B
:1000760095F0400CE8CCF8E9CDF9EACEFAEBCFFBE7
:1000860012039B85D0F05804700320D5B3E80470A2
:10009600075002B2D50203DA92D5EC0460F7E4CC3D
:1000A600C0E0C398F8603B94186008400DD0E0FBB0
:1000B6000203B2E4FBFAC9FC8028E830E406E4C98E
:1000C600FBE4CAFCE830E305E4C9CACBFCE8540704
:1000D6006010F8C3E913F9EA13FAEB13FBEC13FC0F
:1000E600D8F130F52FC3E49CFCEF9BFFEE9AFEEDB2
:1000F60099FDD0E0FBEF4E4D4C701222DB0302035C
:10010600D7EC2CFCEF33FFEE33FEED33FDED30E79D
:10011600EB0203B2EF2BFFEE3AFEED39FDD0E0FB2A
:1001260050130BBB00030203DAED13FDEE13FEEFD3
:0801360013FFEC13FC0203B2FD
:10013E00EC4D6011E8497017ED33EC3304600DE4BB
:10014E00FCFFFEFD22E933E8330470F80203D012FF
:10015E00039B58046009E4CC248150062850090200
:10016E0003DA2840030203D7C0E0EB4A7044B9809B
:10017E0006D0E0FB0203C6EF4E701CBD8008EBFFFD
:10018E00EAFEE9FD80EBE98DF0A4FEE5F002022720
:10019E00E9CDF9EAFEEBFFEF89F0A4FCE5F0CE899C
:1001AE00F0A42EFFE435F0CD89F0A42DFEE435F059
:1001BE008067EF4E7005BD80D780C3EF8BF0A4AC87
:1001CE00F0EE8BF0A42CFCE435F0F8EF8AF0A42CC2
:1001DE00E5F038FCE433CB8DF0A42CFCE5F03BF8D5
:1001EE00EE8AF0A42CFCE5F038F8E433CF89F0A4C5
:1001FE002CFCE5F038CF3400CE89F0A42FFFE5F0CB
:10020E003EFEE433C98DF0A42EFEE5F039CD8AF022
:10021E00A42FFFE5F03EFEE43DFD33D0E0FB50079A
:10022E000BBB000F0203DAEC2CFCEF33FFEE33FEB8
:06023E00ED33FD0203B2E6
:100244000203DAEC5D046005E8590470030203D08C
:1002540012039B580460F6EC4860F2EC7004FDFE57
:10026400FF22C860DB2481C85009C398600250068D
:100274000203D79850CAF582E9294B4A7005AB822C
:100284000203C675F0007C1A7880C3EF9BEE9AEDEA
:1002940099400DC3EF9BFFEE9AFEED99FDE842F005
:1002A400DC23ACF0D0E0FFD0E0FED0E0FDAB822058
:1002B400E7101BEB60BAEC2CFCEF33FFEE33FEEDE2
:1002C40033FD0203B2E803F830E705C0F075F0002F
:1002D400EF2FFFEE33FEED33FD40B830E7C280AAC6
:1002E40074F8CC6480CCC86480C8F58204604FC3C1
:1002F400EB9FF5F0EA9E42F0E99D42F0E89C45F060
:10030400603C501DE5825FFFE582D313CB5BCBF4E9
:100314002B5582FB50280ABA002409B90020088012
:100324001DE5825BFBE582D313CF5FCFF4C3132FAC
:100334005582FF50090EBE00050DBD00010CC3EB34
:100344009FF5F0EA9E42F0E99D42F0E89C45F0609A
:0903540007CC4820E701B3EC22BC
:10035D0075F020800E75F010800575F0087D007E1B
:10036D00007F003392D530D503120839EC3340109D
:10037D00EF33FFEE33FEED33FDEC33FCD5F0ED2224
:0E038D00E5F0247EA2D513CC92E7CDCEFF2260
:10284C0090080DE0FFA3E0FEA3E0CF90078BF0A370
:10285C00EEF0A3EFF0900810E0CBF0A3E0CAF0A3E9
:10286C00E0C9F07F2290078EAD82AC8312068D8D6D
:10287C00828C83F0A309E970010ADFEC900810E068
:0A288C00FBA3E0FAA3E0F9020ACB77
:10039B00E9D2E7C933E833F892D5EDD2E7CD33ECA8
:0703AB0033FC5002B2D52221
:1003B200EC30E7100FBF000C0EBE00080DBD0004AC
:1003C2000BEB6014A2D5EB13FCED92E7FD2274FF58
:1003D200FCFDFEFF22E480F8A2D574FF13FC7D80B1
:0303E200E480EFC5
:100A6600E508248BF582E43407F583E00508229037
:100A7600078830070390078BE475F00112093502E9
:100A8600068D2000E97F2ED2008018EF540F2490A7
:100A9600D43440D4FF30040BEF24BFB41A00500303
:100AA6002461FFE50960021509050CE50C700205D5
:100AB6000B30070E900788E475F001120935EF0236
:100AC60006D3022BA87403D2078003E4C207F508F5
:100AD60090078812094CE4F509F50BF50CE5096059
:100AE600077F20120AA980F5750AFFC201C200C25B
:100AF60002C203C205C206C208120A75FF700D3093
:100B060007057F00120ABAAF0CAE0B22B4255FC2EE
:100B1600D5C204120A75FF24D0B40A00501A75F023
:100B26000A780930D50508B6FF0106C6A426F620C0
:100B3600D5047002D20380D924CFB41A00EF500432
:100B4600C2E5D204020DACD20180C6D20080C0D26A
:100B56000280BCD2D580BAD20580B47F20120AA901
:100B66002002077401B5090040F1120A66FF120A55
:100B7600A9020AE3D208D2068095120A66FB120A77
:100B860066FA120A66F94A4B700679AA7A0E7BFF54
:100B960020022EE509602A7E008E827583001206E9
:100BA600A660060EEE650A70F0C2D5EBC0E0EAC09C
:100BB600E0E9C0E0EE120E0DD0E0F9D0E0FAD0E0A8
:100BC600FB12068DFF60AAEBC0E0EAC0E0E9C0E0D8
:100BD600120AA9D0E02401F9D0E03400FAD0E0FBF3
:100BE600E50A0460DCD50AD98087D20280A2120DFC
:100BF600EF60F7E50A7001041203E5A90A600DE546
:100C06000A600914F50A120E97EF60F3EA30E7025C
:100C1600F404C3995079EAF4250A0430E701E404A0
:100C2600F50A800D120DEF60C1EA050A250A1203C6
:100C3600E5EA9007B7F030E701E4250A04D50A048F
:100C460020050114120E0DE4C0E0120E979007B7AE
:100C5600E0601320E70714F0120A91802204F0D016
:100C6600E014C0E07F00120A91E50A6007120A88C4
:100C7600150A800B300503120A88D0E0020AE3D079
:100C8600E00480C4120DEF609EE50A041203E590AD
:100C960007B7EAF0E50A2005026001042404120EF3
:010CA6000D40
:100CA70074FF04C0E0120E97120A91E50A200502AC
:100CB7006003120A88D0E0B50AE87F45120A9B90C4
:100CC70007B7E07F2B30E7047F2DF404C0E0120A5A
:100CD700A9D0E075F00A84C0F0120A92D0E0120A97
:100CE70092020AE3791080027908C206C2088008D6
:100CF700D2D5790A8004790AC2D5E50A047002F5CB
:100D07000AE4FAFDFEFF120A66FC7B0820011312B3
:100D17000A66FD7B1030000A120A66FE120A66FF99
:100D27007B20EC3382D592D55013C3E43000069F65
:100D3700FFE49EFEE42001039DFDE49CFCE4CBF868
:100D4700C201EC700CCFCECDCCE824F8F870F3805C
:100D570017C3EF33FFEE33FEED33FDEC33FCEB331C
:100D6700FB994002FB0FD8E9EB300105F8D0E0C44E
:100D770048B201C0E00AEC4D4E4F78207B0070C2AC
:100D8700EAB50A0040BCC0E0120E0FD0F0D0E02058
:100D97000104C4C0E0C4B201C0F0120A92D0F0D579
:100DA700F0EB020AE31209550B80530CEB580B5179
:100DB7004C0B4D420CEF4F0CF7440CF7490B6643B5
:100DC7000CFD550C2A460C8A450BF4470ECA500BEE
:100DD700552D0B592E0B7C2B0B5D230B7A200EB355
:100DE7002A0B154800000B74E50AB4FF03750A06C1
:100DF700120A66FC120A66FD120A66FE120A66FFEE
:100E07009007B0020422790AA2D5200314300509FD
:100E1700B910020404B9080104A2D5200602500142
:100E2700042002689202B509005034C0E07F2030E8
:100E370003197F30A20272067205500F120E66C2A6
:100E470002C206C205C2087F30800F300503E9C021
:100E5700E0120AA9300503D0E0F9D0E0B509CC309B
:100E670005177F30B9100C120AA97F583004077F85
:100E7700788003B90803120AA93002057F2D020AF8
:100E8700A97F202008F87F2B2006F322920280CF2B
:100E97007F00B40700500B24B0F582E43407F583D4
:100EA700E0FF22286E756C6C2900D201120A6630A9
:100EB70001F8C201780930D50108F6020B152D504B
:100EC700434958120A662403B405004001E4900E12
:100ED700C593120A9A743A120A9AD2037509040240
:020EE7000CEB12
:1003E500F920E73624F950037907E4F42402FBE504
:1003F50082158270021583DBF6E024FB501BE96051
:1004050014E4F0E582158270021583E004F0B40A65
:0D04150008E4F0D9EE7401F00A22C2D522ED
:10042200ED33EC3392D5FA602AB4FF33EDC2E77BA9
:10043200FF60067A047947E4227A04795020D504D1
:100442007A04794B224E614E002B494E46002D49CB
:100452004E4600E47A08F0A3DAFC7B00740722C05F
:1004620083C082ECC0E0EDC0E0EEC0E0EFC0E0EAA5
:1004720075F010A4CAABF075F04DA42BFBE435F077
:10048200FCEA2410FAEB34C5FBEC34D9FCEDC2E7EC
:10049200FF75F056A4F42411C5F0F434C58FF0A40E
:1004A2002AE5F03BE43CF020E714120557D0E0FFC8
:1004B200D0E0FED0E0FDD0E0FC1202478014F4044C
:1004C200120557D0E0FFD0E0FED0E0FDD0E0FC12F4
:1004D200013ED082D083E0FAEDD2E7CD33EC332473
:1004E20082FBE4C3CF33CFCE33CECD33CD33DBF378
:1004F2007B0775F00A846004F0A31B0AE5F0F0A301
:100502008FF0740AA4FFACF08EF0740AA42CFEAC37
:10051200F050010C8DF0740AA42CFDE435F0F0A328
:05052200DBDE7407227E
:100527003F8000004120000042C80000447A0000DC
:10053700461C400047C35000497424004B1896805E
:100547004CBEBC205A0E1BCA6753C21C749DC5AE55
:10055700FB60065407601C2323120585EB543860A3
:100567000912057112058012013EECF8EDF9EEFA59
:10057700EFCB22EB12058080F1543803241C900541
:1005870027FE93FC0EEE93FD0EEE930ECE93FF2205
:101F8000022B2FE493A3F8E493A34003F68001F21D
:101F900008DFF48029E493A3F85407240CC8C33362
:101FA000C4540F4420C8834004F456800146F6DF31
:101FB000E4800B01020408102040809010F8E47EB9
:101FC000019360BCA3FF543F30E509541FFEE49326
:101FD000A360010ECF54C025E060A840B8E493A3ED
:101FE000FAE493A3F8E493A3C8C582C8CAC583CA18
:101FF000F0A3C8C582C8CAC583CADFE9DEE780BED0
:0112AA000043
:10059700E709F608DFFA8046E709F208DFFA803E46
:1005A70088828C83E709F0A3DFFA8032E309F60833
:1005B700DFFA8078E309F208DFFA807088828C839B
:1005C700E309F0A3DFFA806489828A83E0A3F6084F
:1005D700DFFA805889828A83E0A3F208DFFA804C29
:1005E70080D280FA80C680D4806980F28033801000
:1005F70080A680EA809A80A880DA80E280CA803369
:1006070089828A83ECFAE493A3C8C582C8CCC583E0
:10061700CCF0A3C8C582C8CCC583CCDFE9DEE780B0
:100627000D89828A83E493A3F608DFF9ECFAA9F02F
:10063700EDFB2289828A83ECFAE0A3C8C582C8CC85
:10064700C583CCF0A3C8C582C8CCC583CCDFEADE9E
:10065700E880DB89828A83E493A3F208DFF980CC00
:1006670088F0EF60010E4E60C388F0ED2402B404F9
:100677000050B9F582EB2402B4040050AF232345A0
:0606870082239005E773D9
:10068D00BB010689828A83E0225002E722BBFE026B
:09069D00E32289828A83E493229E
:1006A600BB010CE58229F582E5833AF583E0225009
:1006B60006E92582F8E622BBFE06E92582F8E22253
:0D06C600E58229F582E5833AF583E493226D
:1006D300BB010689828A83F0225002F722BBFE0106
:0206E300F32200
:1006E500F8BB010DE58229F582E5833AF583E8F04B
:1006F500225006E92582C8F622BBFE05E92582C8F7
:02070500F222DE
:10070700C5F0F8A3E028F0C5F0F8E582158270027D
:060717001583E038F0221A
:10071D00A3F8E0C5F025F0F0E5821582700215838F
:06072D00E0C838F0E822EC
:10073300BB0110E58229F582E5833AF583E0F5F004
:10074300A3E0225009E92582F886F008E622BBFEE1
:100753000AE92582F8E2F5F008E222E5832AF58327
:08076300E993F5F0A3E99322EC
:10076B0075F008758200EF2FFFEE33FECD33CDCC45
:10077B0033CCC58233C5829BED9AEC99E5829840C8
:10078B000CF582EE9BFEED9AFDEC99FC0FD5F0D6A5
:10079B00E4CEFBE4CDFAE4CCF9A88222B800C1B9CF
:1007AB000059BA002DEC8BF084CFCECDFCE5F0CB0D
:1007BB00F97818EF2FFFEE33FEED33FDEC33FCEB46
:1007CB0033FB10D703994004EB99FB0FD8E5E4F901
:1007DB00FA227818EF2FFFEE33FEED33FDEC33FCEE
:1007EB00C933C910D7059BE99A4007EC9BFCE99AE2
:1007FB00F90FD8E0E4C9FAE4CCFB2275F010EF2F27
:10080B00FFEE33FEED33FDCC33CCC833C810D70726
:10081B009BEC9AE899400AED9BFDEC9AFCE899F861
:0E082B000FD5F0DAE4CDFBE4CCFAE4C8F922F4
:0E083900C3E49FFFE49EFEE49DFDE49CFC22D0
:10084700BB010789828A8302098D5005E9F80209ED
:1008570081BBFE05E9F802099989828A830209A505
:10086700BB010DE58229F582E5833AF58302098DFF
:100877005007E92582F8020981BBFE07E92582F8BE
:10088700020999E58229F582E5833AF5830209A5EC
:10089700BB010789828A830209055005E9F8020925
:0A08A700EBBBFE05E9F80209F72299
:1008B100BB010DE58229F582E5833AF5830209053D
:1008C1005007E92582F80209EBBBFE07E92582F80A
:0408D1000209F722FF
:1008D500BB010DE58229F582E5833AF5830209C25C
:1008E5005007E92582F80209B5BBFE07E92582F81C
:1008F5000209CEE58229F582E5833AF5830209DB13
:0C090500ECF0A3EDF0A3EEF0A3EFF02265
:10091100BB010DE58229F582E5833AF583020A1CC4
:100921005007E92582F8020A03BBFE07E92582F890
:04093100020A4D2247
:10093500F8E0FBA3A3E0F925F0F0E582158270024B
:070945001583E0FA38F022EF
:09094C00EBF0A3EAF0A3E9F022AC
:10095500D083D082F8E4937012740193700DA3A331
:1009650093F8740193F5828883E473740293686045
:06097500EFA3A3A380DF45
:06097B008A838982E47307
:102BA800EFB40A07740D122BB3740A309811A89960
:102BB800B8130CC2983098FDA899C298B811F6308D
:072BC80099FDC299F5992265
:0C098100E6FC08E6FD08E6FE08E6FF22A2
:0C098D00E0FCA3E0FDA3E0FEA3E0FF22DD
:0C099900E2FC08E2FD08E2FE08E2FF229A
:1009A500E493FC740193FD740293FE740393FF2298
:0D09B500E6FB08E6F908E6FA08E6CBF822B2
:0C09C200E0F8A3E0F9A3E0FAA3E0FB22B8
:0D09CE00E2FB08E2F908E2FA08E2CBF822A9
:1009DB00E493F8740193F9740293FA740393FB2272
:0C09EB00ECF608EDF608EEF608EFF62238
:0C09F700ECF208EDF208EEF208EFF2223C
:100A0300D083D082E493F608740193F608740293BA
:090A1300F608740393F6740473F1
:100A1C00A8828583F0D083D082120A33120A331253
:100A2C000A33120A33E473E493A3C583C5F0C58378
:100A3C00C8C582C8F0A3C583C5F0C583C8C582C824
:010A4C002287
:100A4D00D083D082E493F208740193F20874029378
:090A5D00F208740393F2740473AF
:00000001FF
