:1C006200AF827D1C7E08ED24FFFBEE34FFFC8B058C06EB4C70F0EF14FF70E722D6
:03000000020006F5
:03005F0002000399
:0300030002007E7A
:12007E00C2867582E8120062D2867582E812006280EEBC
:06003500E478FFF6D8FD9F
:200013007900E94400601B7A00900094780175A000E493F2A308B8000205A0D9F4DAF275FF
:02003300A0FF2C
:20003B007800E84400600A790175A000E4F309D8FC7800E84400600C7900900001E4F0A3C3
:04005B00D8FCD9FAFA
:0D000600758107120090E58260030200037F
:040090007582002253
:00000001FF
